:100000000C9445090C946D090C946D090C946D09C0
:100010000C946D090C946D090C946D090C946D0988
:100020000C946D090C946D090C946D090C946D0978
:100030000C946D090C946D090C946D090C946D0968
:100040000C94BC140C946D090C9437170C94111774
:100050000C946D090C946D090C946D090C946D0948
:100060000C9406150C946D09BF00040305050306E6
:1000700006181D00FA11FB11FB02D705E611A82096
:100080000600F036012109221A34E18322022209F6
:10009000C6744541844F0423292B166C49444A44B5
:1000A0004A4448444A44E660E260464448444A447C
:1000B000E660E26046444A4448444A444A440800F0
:1000C00024278BD66B2BB0E8404424A42686264AEE
:1000D000264C24EC5988588C548C540C4D4C49882F
:1000E000C8815061681400252D3416B48550CA4E5D
:1000F00068644A9132216523338236A244F220F2A9
:100100002042A4328632236342CA8454498D0CC9EA
:100110005909920026252E168469B450464E464E43
:10012000465042B274D26E4446446644426A421912
:1001300089DC8C14CD4151CD002708C27425E1A083
:10014000002813C57A434744464446898CFE918C67
:10015000221921012914C576434148464846918C0D
:10016000FE898C12191119002A12E75855272C46BE
:100170002242A2664642242602002B0E4A99744966
:1001800050A3830323418D002C0982D8338142027E
:10019000002D0846B444E1A0002E07421834810027
:1001A0002F1227123C4B9194222945528AA41449BC
:1001B000A90230162B166C69EC668994841CFF4EDC
:1001C000424A6466E66C0800310C261A6C49E6E087
:1001D0002048FF0F321A2B166CA7E840646662AA0B
:1001E0004E52706EAC8A6C6EA1E0E0C18300331D8C
:1001F0002B166CA7E840646662AA4E5070AAAC72D7
:10020000B28EAE6A6266E440A80600341F2B166CFC
:100210006F8EAC4C426A4268444846664664484425
:100220004A624AE2E041A0A41600351C2B166CE598
:1002300040E440445052E141CCC184D4E4A44A3269
:10024000A39103A11A00361E2B166C89EA2064487C
:10025000448C5209CDC104CDC4541DBBAA899991C7
:1002600003A11A0037162B166CE18340C141C1412E
:10027000C141C14149C14149CD00381D2B166C69AE
:10028000EC484695889488948CA2372BA6EAE8AA75
:100290002666460E846A00391F2B166CA7E8406458
:1002A0006662AA8E5DD5C40CC5C14C85A42499880C
:1002B000D0C8411411003A09821934811E82003BD2
:1002C0000BC2D933811E824202003C160C167437D1
:1002D00072706E706E706E727674767476743600AC
:1002E0003D0C0CB574E183796C0E1E0C3E170C1698
:1002F000742176747674767476726E706E706E7029
:100300003216003F152A166487E8204448428C4C78
:100310006E6C9D42F5081501403EB696C3D1FC6057
:1003200074704E584A5C28AC2A46E84244246888D7
:100330002642484C88464E88464C8A464C2A4246BD
:100340004A49903632072243513364F260F26073B7
:10035000C207F200950041232F127C6D78B65442FB
:1003600054427262504650466E664C4A6AD101D180
:1003700001CDDC88A4C4A4E50042222D1A84E1400A
:10038000E880444E445042504250426EE280E4A025
:100390004250429287120715073300431D30168CD6
:1003A000EBEE80888A645244B6965CE7B312B212D0
:1003B0009332544407744700441E2E1A8CE140EADD
:1003C00080468C4470425242B2942F2B250427C49D
:1003D000480E680EA40045122D1A84E1B7BA3D20DC
:1003E000392091D5DB83070546102D1A7CE1B7BA79
:1003F0003D20392091D56F014720301694EBEE80D7
:10040000888A645244B6965CBB03B98359095989FA
:10041000C911AA9A03AB9B00480E2D1A8C41925F1A
:100420001E7C20C95F0A4908221A34E107064A11D6
:100430002A126451FF43323209219183201A004B62
:10044000282E1A844170426E446C466A48684A6697
:100450004C644EA2EC208C646A68484C486C466E32
:10046000445044704272004C0C2B1A6C4152FF5F96
:100470001E3C084D24301AA44198B8D4F4F020F062
:1004800040EC424C8262688244488464098D880C46
:100490008D0D11AFA4A8144E212E1A9441B4D2F0A0
:1004A0008E428E628C648A6688488868866A846C0C
:1004B000824E82EED0B254004F1D31169CEBF0807C
:1004C0008ACDE488ACC46C35AF6B2764452667A839
:1004D000A80E08AF0050172E1A84E180E6C04252E1
:1004E0004294971207160734C2FA1800512471D6A5
:1004F0009BEBF0808ACDE488ACC46C35AFEB622610
:10050000C44644C66CA8A80EEA2EE601E601220005
:1005100052272F1A8CE180E8C0445244544254427E
:100520005442544252E4C0E4A046704452445442FF
:1005300054425442B45600531F2E1684C9EC6048EE
:100540006C445044585AF840EE40585A98B452827D
:100550004CE680EA0600540D301284E10774E2FA9A
:10056000FF0E0055122D1A8C4192FF9712722253E2
:10057000330762450056242F127C61D272425264C6
:100580006E464E484E686A4AD9CC9C8CA08CE0C41A
:10059000A484A88468EDF0180057333612B4415093
:1005A0009050B04E6E428C4C448C4C64C8684648A7
:1005B00044481321A191AD448444C4448444C48C70
:1005C000ECC808C9280545054505A5005821311284
:1005D0008C41BA766272666E6ADDCCE4C46CF574E6
:1005E000EDC4E4CCDCD4BA99C989D96A0159163072
:1005F000128441B8746270666C6A686E64D2965AEE
:100600005C7F075A182E1274E3A0E4A07456767427
:10061000567674ADECE8ACECE8C1075B0DC47A3BF0
:10062000E16044FFFFE420005C1227123C414A4C89
:100630004A999432296552CAA4145D0DC4763BE1EF
:100640002044FFFFE460005E0C89B45D67AA666227
:10065000424A005F084DB06BE18302600A86B445F0
:1006600061684A2C0061198C156C87EC2048ADE458
:10067000D48D85C8948898C8D0CC0149C900621728
:100680002B1A7441522F6A0E268626C4EA786634E5
:10069000713021510363168B156489EA2064684226
:1006A0008C52533189A19183281A0064172B167438
:1006B000536F2A240E2686CCE8B82B93189A3898C4
:1006C000A91065178C157489EC206668444C42F0BB
:1006D000E05BD1A99103A91A006610261234678441
:1006E0004448C9418990FE0900671D2B7673A742D3
:1006F000E26062C88C8EBB3289A18983990A491550
:100700005222074235006811291A6C414E2F660E9D
:10071000226624A4F85702690A221A3481ECE0C147
:10072000006A0DC4723345B988FE9F1C48006B1BDC
:100730002A1A6441508F26644644662486AA8C2671
:1007400066B419119A9092901A6C08221A34E10733
:10075000066D219019A4418286E420C26286464239
:100760004A8A4A8A4A8A4A8A4A8A4A8A4A8A4A8AE9
:100770004A016E0F89196C4162E6206246428A7F07
:10078000256F168C1574C7E860646862AC90C3B2BC
:1007900089A19183211B0070182B7A7341A2E66016
:1007A000626842AC8E6746130713123592BA047121
:1007B000172B7673A742E26062C88C8EBB3289A188
:1007C0008983990A493D720D8619444184E2644641
:1007D000483F0273158A1564A5E82062484290EEEE
:1007E000CA8E90EAA0C60400740EE611344548C9CA
:1007F0004189907E4433750F89196C418A7F252188
:10080000337110332176198B115C418EAE6A424AE6
:10081000646646918CD0C4948458DDE01000772241
:10082000921194414C8C4CAC886842884864C464F2
:10083000464423118D4CAC88C888E8C404C58400A4
:1008400078168B115C41AE6A6266C554DDE05CD5FA
:10085000C4CC8AA93A01791E2B725B418EAE6A42E2
:100860004A646646918CD0C4948458DDE0A0E0A030
:1008700058191D007A108B115CE360E2606E87737B
:10088000DB1D3C087B12C6764B49666446486F14F4
:100890004929D2A345027C0BE25A33E181D9C181B7
:1008A000017D14C6764B4168484A48AF14C928D226
:1008B0001B991921007E0E8BB47583E84084E440B7
:1008C000880200A00600F03601A10A221A3481E84D
:1008D000E04101A2220BD66B31528CEA2064A44283
:1008E00026844648264A264A444C22488266E4200A
:1008F000A84A321000B8182B166CA9EA66899488A9
:10090000A4BAA33B490D054D0E2C442A00A4186B34
:10091000B56C232E628B0319AD44A444A464D41C8B
:10092000486C111701A51A2C126C419050424C468C
:10093000482B113942AA833151B18331515D01A64F
:1009400009221A34E1D9C101A72ACB966BA7EA661E
:100950008994C890CC5CD5C490CC8CD0C8D0C8D079
:10096000C890CC8CD0C454DD8CD08894C8CCCC55E5
:100970000D00A80946F44541844400A930301AA46A
:10098000CB70684A50468646244644264244486412
:10099000464846A58CA48CA48C90CC889088448C26
:1009A000884C880C8D42A9A1412B00AA1467D5441C
:1009B000834485880C89841209119109B98303AB9A
:1009C0001209596C272844464246424644466F82E3
:1009D00002AC09CB9474E183481DAD0846B444E1F0
:1009E000A000AE32301AA4CB70684A5046C24624EA
:1009F0004446264244486446484623192B1945324A
:100A000042322342221221422221124212328252C7
:100A100043835600AF084D506EE18302B00EC6749A
:100A200045458642844482460400B1120C16744B3C
:100A30005457070FA644750F7EF06000B20C0635C0
:100A40003D83424448464706A81006353D8342444C
:100A500048644A8844820200B40B86B44567644403
:100A6000260A00B5200A9A6B414A424A424A424A43
:100A7000424A424A424A424A424A6266E2A062848A
:100A8000504300B62A4AB663E7A224A424C224C273
:100A900024A424A42468242C242C242C242C242CAA
:100AA000242C242C242C242C242C240200B7074290
:100AB00018358100B80BA57843236848C60200B9F1
:100AC0000804353DC5441FBA0F67D5446546420D3D
:100AD00037126A260F0EBB1209596C2128469FC88F
:100AE00048C848C88804C500BC23301694455084C3
:100AF00050484E4A4C5772428242D2CA544D491114
:100B00004949082991913211151115BD22301694C9
:100B100045508450484E4A4C5772428242D26AE84D
:100B20004454C909C94989498949892933BE2530AD
:100B30001694834E44992AA92941214119291175F6
:100B400034D2CA544D49114949082991913211159D
:100B50001115BF152A166449501EA17663DB098A58
:100B600049084D1C04D100C0232F127C6D78B65467
:100B70004254427262504650466E664C4A6AD101F7
:100B8000D101CDDC88A4C4A4E500C11A2D1A84E1EA
:100B9000A0E2A04256B7072407158212923C94386F
:100BA000A8389801C2222D1A84E140E880444E44BE
:100BB0005042504250426EE280E4A042504292873E
:100BC000120715073300C30B2D1A84E1B7FAFF167D
:100BD00000C41570D693E960EC604CFFFF7F2527B9
:100BE00072F08131B100C5122D1A84E1B7BA3D20EF
:100BF000392091D5DB830705C6353812C44350C967
:100C00009CDCCC98D8D494D4DC90D0E48CCCEC8808
:100C1000C8F484C4F8C1F8C1F488C8EC8CCCE49062
:100C2000D0DC94D432B19939B98941C101C71B2EA6
:100C30001684C9EC60666C445058ED9CA1F1626169
:100C4000D2C28983A2031100C81C2E1A944194CBEE
:100C500042BBB309AA11A2199A2192298AB13BC3B6
:100C60004A525201C9208E1A946764CE924A94CB9C
:100C700042BBB309AA11A2199A2192298AB13BC396
:100C80004A525201CA282E1A844170426E446C4660
:100C90006A48684A664C644EA2EC208C646A6848D4
:100CA0004C486C466E44504470427200CB262C1661
:100CB0007CE560E460444C444C444C444C444C441B
:100CC0004C444C444C444C444C444C444C44CCACBC
:100CD0004E00CC24301AA44198B8D4F4F020F0404F
:100CE000EC424C8262688244488464098D880C8D91
:100CF0000D11AFA4A814CD0E2D1A8C41925F1E7C4D
:100D000020C95F0ACE1D31169CEBF0808ACDE488A5
:100D1000ACC46C35AF6B2764452667A8A80E08AF36
:100D200000CF0B2D1A8CE197FCFF5200D0172E1A22
:100D300084E180E6C042524294971207160734C2FB
:100D4000FA1800D11D30168CEBEE80888A6452446C
:100D5000B6965CE7B312B21293325444077447005C
:100D6000D20D301284E10774E2FAFF0E00D31F2C7B
:100D700016744190B06C424C444C646846486864B8
:100D80004A444C448E90E1E4581D1D00D42D321687
:100D9000A4EB20F0A08A4484664868444AC5945471
:100DA00099189918995895D484949221A1191211DF
:100DB000AA83C2836879084100D52131128C41BAD7
:100DC000766272666E6ADDCCE4C46CF574EDC4E4E0
:100DD000CCDCD4BA99C989D96A01D6276EDA8B419D
:100DE0005242524252425242524252425242524263
:100DF00052425242524252425242524252E2E06304
:100E000005D70F2D1A8C41925F1E1C441CD4EA0F8B
:100E1000D8263416B4414E8E4E8E4E8E4E8E4E8E49
:100E20004E8E4E8E4E8E4E8E4E8E4E8E4E8E4E8EE2
:100E30004E8E4EEEE00FD92C75D6BB414E859C0AE6
:100E40003915722AE454C8A9905321A7424E859CB3
:100E50000A3915722AE454C8A9905371F0F740F288
:100E60004002DA283216A4A1BA1E421E421E421EB9
:100E7000421E421EE2C0EAE04874465646564656B6
:100E800046564674E6E0E8C00400DB21321AB4415D
:100E90009C9F1F1CC41C1C88904ED04AD04AD04A2C
:100EA000D04A904E1C1C881C1CC408DC162F1A94B7
:100EB000415A5F1F981C5C88D6F2F4E060E2C004DF
:100EC00000DD1F2F168CE7EC80868A44725A7A5A0E
:100ED000EC40EC405AF1B084E40415CD01D9150082
:100EE000DE2E331AB441CC4AE860468688446470EA
:100EF0004244544262B442F83185308530C5688935
:100F0000A884C8E0840C1189D0C18C981500DF1E1C
:100F10002E168CE5A0E2E0409294A79512073607C2
:100F2000544342533263227312839502E0198C15A5
:100F30006C87EC2048ADE4D48D85C8948898C8D0DF
:100F4000CC0149C900E11B0C167471E8E620665219
:100F5000C2E680624C62AC9077136222074336008F
:100F6000E2138A196CE140E2A08CD901C54119B3A2
:100F7000831700E30B891964E1819DFE1D00E41DC8
:100F8000CDD57BE720EA204A484A484A484A484AA1
:100F9000484A484A4895C8C1979402E5178C157489
:100FA00089EC206668444C42F0E05BD1A99103A92A
:100FB0001A00E6269215A4414CAC4A6A624868665B
:100FC00046666A4464EE60F2207242626E44646A6D
:100FD000466691D0C494D400E7158A1564E320E2F4
:100FE000A04C505195A120D941C5410400E8148A74
:100FF0001564418C5591CDC904C5C88D51151999F9
:1010000000E917EA15644591158D18AB229B9309E9
:101010008A911BA32A323201EA1A8A196441684272
:101020006644644662A8CA6862469B11A109290900
:10103000A901EB1D8A156CE520E42044484448448E
:10104000484448444844484448444862A84A00EC5C
:10105000168E158441B4F0EC40E8626482C4848644
:10106000911029A702ED0D89196C418A57070FA22B
:101070007825EE168C1574C7E860646862AC90C37E
:10108000B289A19183211B00EF0B89196CE18115B5
:10109000FF9500F0182B7A7341A2E660626842ACBB
:1010A0008E6746130713123592BA04F1168B156436
:1010B00089EA206468428C52533189A19183281AAD
:1010C00000F20C8C1164E1832951FD2B00F31E2BDF
:1010D000725B418EAE6A424A646646918CD0C4947B
:1010E0008458DDE0A0E0A058191D00F4254E768359
:1010F0004DF220E8A06444646246A64888488848C7
:101100008848A84666624464E4A0E8205258670014
:10111000F5168B115C41AE6A6266C554DDE05CD5A4
:10112000C4CC8AA93A01F61ECAD96B414A424A4246
:101130004A424A424A424A424A424A424A424AE2AF
:10114000E0C05001F70D89196C418A5707140771E7
:101150007AF81D901594414A8A4A8A4A8A4A8A4AEC
:101160008A4A8A4A8A4A8A4A8A4AEAE00303F92270
:10117000D1D59B414A85940A2915522AA45448A9DD
:10118000905221A5424A85948A830FEC01E4010420
:10119000FA1A8D157C819256ED81D0C18CD8889C2D
:1011A000889C88D8C8C1CC810800FB198E15844161
:1011B00094D3039A8312B2093A093A09B289839205
:1011C000031A01FC148B156C4152CB03918309B1B6
:1011D0003A660716072200FD158B156CC5E84062BC
:1011E000687252E8A5A0D1C8818C0D00FE208F1531
:1011F0008C41C846E4604264684262AC42F021859A
:1012000020C558C9D084C8C184900D00FF198B1522
:101210006CE540E2C08C8EAE4CE260E44066466411
:101220004862AA4C0000000004FFFF00000000001C
:1012300000250028002B00000000002300260029C4
:101240000000000008000201000003040700000085
:10125000000000000000000000240027002A000118
:10126000020408102040800102040810200102043A
:10127000081020040404040404040402020202020C
:1012800002030303030303003F1C11241FBECFEF1F
:10129000D8E0DEBFCDBF11E0A0E0B1E0ECEEF4E4B9
:1012A00002C005900D92A83DB107D9F724E0A8ED42
:1012B000B1E001C01D92A136B207E1F719E0C5E423
:1012C000D9E004C02197FE010E947B1FC434D107DE
:1012D000C9F70E944E190C9474220C94000080E00F
:1012E0000895213039F020F0223031F4861B089522
:1012F000860F0895841B0895840F0895213039F0D6
:1013000020F0223031F4841B0895840F0895860F55
:101310000895861B0895DC0118964C911897ED915D
:10132000FC911197249130E0042E02C03595279549
:101330000A94E2F7862F840F883010F4E22F0EC053
:1013400031961196FC93EE939491E92F98E0941BBB
:1013500001C0EE0F9A95EAF7E22B885018968C930D
:1013600081E090E001C0880F6A95EAF781508E23F2
:101370000895FC01E60FF11D849190E0982F8827D5
:101380003196E4918E0F911D0895BF92CF92DF9216
:10139000EF92FF920F931F93CF93DF9300D000D073
:1013A0001F92CDB7DEB78C01DC01DB96BC90DB97DA
:1013B000DC96DC90DC97ED91FC91C188E12CF12C5E
:1013C000D801ED91FC9111978089D9964D915C914E
:1013D000DA971C829D2D9E0D9D838B83B8E08B9F99
:1013E000C00111248E9D90018F9D300D9E9D300D6A
:1013F0001124CA01820F931F9A838983D8011496FE
:10140000ED91FC9115979E012F5F3F4F41E06FE0FA
:10141000C801099581E08E0D8B1538F4BFEFEB1AEA
:10142000FB0A8D2D8E0D8C1558F20F900F900F909A
:101430000F900F90DF91CF911F910F91FF90EF9040
:10144000DF90CF90BF900895CF92DF92EF92FF92FE
:101450000F931F93CF93DF936C01EB017B01E40E9D
:10146000F51E00E010E0CE15DF0561F06991D601B0
:10147000ED91FC910190F081E02DC6010995080FD6
:10148000191FF1CFC801DF91CF911F910F91FF90EC
:10149000EF90DF90CF900895089580E090E0089558
:1014A000FC01A081B18150969C9143AD949FA00115
:1014B000112483E0440F551F8A95E1F760E070E046
:1014C00081AD92AD0C94951FCF93DF93EC01962FD5
:1014D000683109F44AC060F4B901943179F0973168
:1014E00009F0BAC050E087E393E00E94A1103BC02E
:1014F000693109F45DC06032B1F1AEC0E881F981B3
:10150000A585B0E020EA36E841E050E00E94701F77
:101510006C877D878E879F87109221021092200210
:1015200010921D0210921E021092230281E08093FD
:1015300025021092240261E082E10E942B1461E0F6
:1015400083E10E942B148091B9008E7F8093B900B3
:101550008091B9008D7F8093B90088E48093B800B2
:1015600085E48093BC0081E078C02C853D854E8564
:101570005F8560E074E284EF90E00E944E1FDA0124
:10158000C9014097A109B109B695A7959795879587
:101590008093B8008E8990E09595879591E090931F
:1015A0001F028093FC0110921D0210921E02DBCFDD
:1015B00090911E028091FC01913208F046C020916A
:1015C00023022111FCCF22E02093230221E020936B
:1015D00025022FEF20932202109247029093460299
:1015E000ADEFB1E046E252E0FA012E2F241B29179D
:1015F00018F42D912193F9CF10924802909148024E
:10160000880F892B8093480280912402813061F4F5
:1016100010922402809148028093BB008091BC000C
:1016200083FDF8CF85EC01C085EE8093BC008091EE
:1016300023028230E1F3809122028F3F31F08091CA
:101640002202803211F08091220210921D0210922B
:101650001E0210921F0287CF80E0DF91CF91089584
:101660008F929F92AF92BF92CF92DF92EF92FF92B2
:101670001F93CF93DF93EC016C3288F46A3208F049
:1016800083C06832B1F0693209F067C0C42ED12C32
:10169000E12CF12C0E9497144B015C0137C06D3294
:1016A000D9F108F45AC084EB860F823008F443C0A5
:1016B00054C06F9610E089918F3F39F0103110F4CB
:1016C00061E001C062E00E945B141F5F163199F770
:1016D0005BC00E949714DC01CB0188199909AA0903
:1016E000BB09883E9340A105B10580F021E0C21AF4
:1016F000D108E108F10888EE880E83E0981EA11C4D
:10170000B11CC114D104E104F10419F7C114D104CE
:10171000E104F104F1F638C0433018F082E090E0C3
:1017200002C085E090E0880F991F880F991F0597E8
:101730000197F1F729C0962F9F73C90FD11D411151
:1017400007C061E08F8D0E945B1460E08F8D12C036
:1017500062E08F8D0E945B1417C06034B8F0962F42
:101760009F73FE01E90FF11D878D8F3F69F0903166
:1017700020F4642F0E942B1407C00E94021421E061
:10178000892B09F420E02A8F81E001C080E0DF91FD
:10179000CF911F91FF90EF90DF90CF90BF90AF90CF
:1017A0009F908F9008950F93FC01EA5BFF4F30816B
:1017B00031965081451728F4301730F0041720F087
:1017C00010C03017D8F30DC0FC01EC5BFF4F308127
:1017D00031968081681738F4321740F081E026177F
:1017E00030F080E004C03217C8F3FBCF81E00F91E6
:1017F00008950F93302FFC01EC58FF4F5081552373
:1018000009F461C0222309F45EC0223048F002309E
:1018100019F46F5F621B04C0033011F44F5F421B69
:10182000032F0170FC0130FD24C0EA5BFF4F3081C3
:10183000431708F448C031963081431708F043C07D
:101840003297308131975081260F261730F4631775
:1018500018F42FEF230F03C0652F6317A0F552175D
:1018600090F5651708F4652F321708F4232F261B0F
:1018700021C0EC5BFF4F3081631728F13196308136
:10188000631708F53296308131975081240F241761
:1018900030F4431718F42FEF230F03C0452F4317DD
:1018A00090F4521780F4451708F4452F321708F4C6
:1018B000232F241BDC01D796ED91FC91D89704804F
:1018C000F581E02D09950F9108955F926F927F92B7
:1018D0008F929F92AF92BF92CF92DF92EF92FF9240
:1018E0000F931F93CF93DF935C01F62E642EEC01D0
:1018F000C05BDF4F1C81DD804C018AE7880E911CA4
:10190000EE80E11ACE2CFE1408F4CF2C5B800C85FF
:10191000202F4D2D612F8A810E947109782E202F52
:101920004D2D612F852D0E947E09482F662011F0D4
:101930009A8504C09985911108C09B85F401908314
:101940002C2D672DC5010E94F90BFE1420F0FE1806
:10195000D39410E0D5CF1F0D1C83DD82DF91CF9192
:101960001F910F91FF90EF90DF90CF90BF90AF90BD
:101970009F908F907F906F905F9008954F925F92AD
:101980006F927F928F929F92AF92BF92CF92DF928F
:10199000EF92FF920F931F93CF93DF931F92CDB7D8
:1019A000DEB72C01062F142F7901FC01E45AFF4FFA
:1019B00080818130C9F070F0823001F1833039F5D7
:1019C000F201E25BFF4F0190F081E02DC201099529
:1019D000080F1DC0F201E25BFF4F0190F081E02D86
:1019E000C2010995180F13C0F201E25BFF4F01908D
:1019F000F081E02DC2010995081B09C0F201E25BEC
:101A0000FF4F0190F081E02DC2010995181BF201F2
:101A1000EE5AFF4F00833196108337978081918172
:101A200047962FEFE216F10409F050F5E1E6EE16C5
:101A3000F10420F0F201E059FF4F07C0F1E4EF1686
:101A4000F10438F0F201E259FF4F20813181820F19
:101A5000931F9C012F5F3F4FF9014491442309F4E8
:101A60000EC1FC01449150E04E155F0521F48C013C
:101A70000E5F1F4F34C0F9012491820F911DE9CFF1
:101A8000F201EE58FF4FC080D180C80ED91E8601EA
:101A900060E0C6010E94B909080F191F62E0C60183
:101AA0000E94B909F4E0CF0ED11C8E159F0580F37A
:101AB000F801849190E0982F88273196E4918E2B3D
:101AC000009709F4DCC08E159F0519F40D5F1F4FB8
:101AD00006C0F8013296E4910E0F111DE9CF0115F1
:101AE000110509F4CCC07201F0E5EF0EF11CF7010D
:101AF00011830083108671966081C7010E948B0953
:101B0000F701868372966081C7010E948B09B82E07
:101B1000F70187836201FAE7CF0ED11CF6019081AD
:101B2000F701928781E0911180E0F7018387F2014C
:101B3000ED59FF4F1081612FC7010E948B099FEF64
:101B4000910F01E010E0980101C0220F9A95EAF789
:101B5000782E721AF201EC59FF4FA0806A2DC7014E
:101B60000E948B09AA94480101C0880CAA94EAF744
:101B70006B2C680EF201EB59FF4FA0806A2DC70154
:101B80000E948B09AA9401C0000FAA94EAF7A82E1C
:101B9000A01AF701068110160CF072C09485861801
:101BA000292F482D672D828199830E947109182F52
:101BB000F70182839981292F482D672D83810E9407
:101BC0007E09482FF70183839981913091F060F06D
:101BD0009230A1F09330E9F4212F2B0D801B01E00E
:101BE000040F41E0480F17C0212F200F082F0B0DC5
:101BF00012C09B1921E0210F080F09C081E0982F26
:101C0000901B21E0210F8B1901E0040F480F190FE1
:101C100002C0082F212F612FC2010E94D30B8823FD
:101C200079F1F701148215828201015A1F4F420196
:101C3000F0E68F0E911CF8016081C7010E948B09AC
:101C4000682EF4016081C7010E948B09782E40E064
:101C5000662DC2010E94650C41E0672DC2010E9401
:101C6000650C61E0C7010E948B098111F0CFF7017B
:101C700085818B1504F38285F601808301C0A12C38
:101C80008A2D0F90DF91CF911F910F91FF90EF90D0
:101C9000DF90CF90BF90AF909F908F907F906F908C
:101CA0005F904F9008950F931F93CF93DF93EC01B4
:101CB0008C010C5F1F4FFC01E058FF4F0190F08139
:101CC000E02DC80109958E3F2FEF920780F4FE01A9
:101CD000ED57FF4FCE57DF4F9C0140816881C8010F
:101CE0000E94BE0C288190E0820F911D888381E0C4
:101CF00090E0DF91CF911F910F910895CF93DF93E3
:101D0000EC016CAFEFA9F8AD0190F081E02D0995E1
:101D1000EFA9F8AD0280F381E02DCE01DF91CF91E4
:101D200009940F931F93CF93DF931F92CDB7DEB724
:101D30008C010E94C509D801DC966C91DC97DB967A
:101D40008C91DB97680FED91FC9111978189681751
:101D500060F01496ED91FC91159720E030E040E0A2
:101D600060E1C801099580E00FC0F801E558FF4F18
:101D70008081882329F0C80169830E94500A698103
:101D8000C8010E947E0E81E00F90DF91CF911F91DC
:101D90000F910895CF93DF93EC01FC01E558FF4FBD
:101DA0008081882319F0CE010E94500A60E0CE01A4
:101DB000DF91CF910C947E0E2F923F924F925F92C3
:101DC0006F927F928F929F92AF92BF92CF92DF924B
:101DD000EF92FF920F931F93CF93DF93CDB7DEB7B0
:101DE0002B970FB6F894DEBF0FBECDBF81E693E010
:101DF0000E94CA0E08E610E08EE6282E80E0382EFB
:101E00009FE6492E90E0592E20E7622E20E0722EA8
:101E100031E7C32E30E0D32E42E7A42E40E0B42EAB
:101E200053E7852E50E0952ECE0101967C018091DE
:101E3000AD039091AE038856904009F4A7C010936B
:101E4000AE030093AD03F80184918093BE03E9E6ED
:101E5000F0E084918093BF03EAE6F0E08491809300
:101E6000C003EBE6F0E084918093C103ECE6F0E080
:101E700084918093C203EDE6F0E084918093C303E4
:101E8000F10184918093C403F20184918093C5038E
:101E9000F30184918093C603F60184918093C70374
:101EA000F50184918093C803F40184918093C90360
:101EB000E4E7F0E0E491E093CA03E5E7F0E0E491C1
:101EC000E093CB03E6E7F0E0E491E093CC03E7E7AF
:101ED000F0E0E491E093CD03E8E7F0E0E491E093F3
:101EE000CE0361E188E690E00E94B9099093D003A7
:101EF0008093CF0363E188E690E00E94B909909354
:101F0000D2038093D10365E188E690E00E94B9098D
:101F10009093D4038093D3038091AD039091AE034B
:101F2000892BA1F18091CB038093D7034091CC03FF
:101F30004093D8039091D603992341F1913069F4ED
:101F40009091CD03891714F49093D7038091CE0319
:101F50008417E4F48093D80319C03091C80320910A
:101F6000CA03082E000C990B622F022E000C770B6F
:101F7000630F711D37FD7A95861797071CF4320F92
:101F80003093D703241714F42093D80360910001F1
:101F90007091010180910201909103010E94EF1D57
:101FA0007F936F938BEA91E09F938F93FF92EF92D1
:101FB0000E949C1F86E592E19093640380936303E3
:101FC000A70164E18EE10E94A6170F900F900F9079
:101FD0000F900F900F9091E060E2892F9B870E94F5
:101FE000E3179B859F5F9138B9F786E592E190935F
:101FF00064038093630340EB51E060E488E20E9455
:10200000A61781E693E00E94910E811110CF2B96C6
:102010000FB6F894DEBF0FBECDBFDF91CF911F91F9
:102020000F91FF90EF90DF90CF90BF90AF909F9077
:102030008F907F906F905F904F903F902F9008957A
:10204000833081F028F4813099F08230A1F0089536
:102050008730A9F08830B9F08430D1F480918000C5
:102060008F7D03C0809180008F77809380000895DA
:1020700084B58F7702C084B58F7D84BD089580912B
:10208000B0008F7703C08091B0008F7D8093B00047
:10209000089585ED8093BC008091BC0084FDFCCF49
:1020A00010922302089540916B02262F30E0240FF6
:1020B000311D21323105DCF4209123022430C9F492
:1020C000FC0180E090E0861758F430916B0221917A
:1020D000DC01A75BBD4FA30FB11D2C930196F3CF7D
:1020E00080916B02680F60936B0280E0089581E03D
:1020F000089582E00895089581E090E030912102F2
:1021000020912002321710F480E090E091958195A3
:10211000910908958091210290912002891730F44D
:102120008F5F8093210280E090E008958FEF9FEF12
:1021300008958091200290E020912102821B910954
:102140000895CF92DF92EF92FF920F931F93CF9358
:10215000DF937C01262F972F8A0180911F0288230D
:1021600091F0C62FD72F6E01C40ED51ECC15DD05FC
:1021700071F06991D701ED91FC910190F081E02D12
:10218000C7010995F3CF642F822F0E945310C80115
:10219000DF91CF911F910F91FF90EF90DF90CF9043
:1021A0000895CF93DF931F92CDB7DEB76983209157
:1021B0001F022223D1F020911E02203240F021E0A4
:1021C00030E0FC013383228380E090E015C08091F1
:1021D0001D02E82FF0E0E350FE4F998190838F5F5E
:1021E00080931D0280931E0205C061E0CE0101961E
:1021F0000E94531081E090E00F90DF91CF910895FD
:1022000080E00895DC011A96ED91FC911B9720E087
:1022100030E00994DC011696ED91FC91179720E0CF
:1022200030E040E069E10994DC011696ED91FC9103
:10223000179720E030E040E068E109949A01DC0162
:102240001696ED91FC911797462F67E10994EF924E
:10225000FF920F931F93CF93DF931F92CDB7DEB7FB
:102260007C018B01D8016C916731E1F078F4653124
:10227000A0F1F80141814983D7011696ED91FC91B7
:10228000179720E030E0C701099524C06A31A8F013
:102290006E3F19F5F8014181498369E2C7010E9447
:1022A000021118C0F80181818983AE014F5F5F4F31
:1022B00061E0C7010E941E110DC00F5F1F4FD701C3
:1022C0001696ED91FC91179720E030E040E0C701B1
:1022D0000995C8CF0E5F1F4FC5CF0F90DF91CF91EB
:1022E0001F910F91FF90EF900895462FDC011696F5
:1022F000ED91FC91179720E030E066E10994462FBC
:10230000DC011696ED91FC91179720E030E065E135
:102310000994EF92FF920F931F93CF93DF93EC01F9
:10232000142F79016D30A9F118F46B3039F15FC0C9
:102330006E3009F441C06F3009F059C00E94141189
:10234000F70183810C89F8E08F9F000D112460E470
:10235000CE010E947F11602F62956F706061CE0187
:102360000E947F11602F6F70CE010E947511F701DE
:102370006481606BCE010E94751129C0411103C0B8
:1023800067E171E002C062E171E0CE010E942711B5
:1023900071C0411108C06BE071E00E942711E88113
:1023A000F981828907C064E071E00E942711E88109
:1023B000F98183898C8B5EC00E94141161E8CE0183
:1023C0000E947F11612FCE010E9475110CC0F70190
:1023D000408151816281660F660F660FCE010E94B7
:1023E0001E111150A1F7CE010E940A1143C069309D
:1023F00031F481E591E09983888382E0DBCF6A3014
:10240000B9F5EA85FB8520E030E040E068E2CE01E6
:102410000995EE81FF8120E030E040E064E1CE01EB
:10242000099541E06BE4CE010E940211E881F98137
:10243000448169E2CE010E94021140E06BE4CE01CA
:102440000E940211E881F981448169E2CE010E9473
:10245000021141E06BE4CE010E940211E881F98192
:10246000458169E2CE010E9402116CE171E08DCFDD
:1024700080E001C081E0DF91CF911F910F91FF902B
:10248000EF900895DC011896ED91FC91199720E0EA
:1024900030E040E069E10994DC011896ED91FC918F
:1024A000199720E030E040E068E10994662329F0C4
:1024B0006A3019F0862F90E008958FEF9FEF08950E
:1024C0000F93DC01DF963C91DF97431BD596ED918E
:1024D000FC91D69709950F910895CF93DF93FC0156
:1024E000A081B18193AD892F880F880F880F86AFA7
:1024F00050968C915097803208F08FE1880F880FAA
:10250000880F85AF24AD822F880F880F880F87AF83
:1025100051963C915197422F50E0490F511D632F26
:1025200070E06417750714F4932F921BEF01C05CE1
:10253000DF4F8883219628E0929F800D11248883A5
:10254000219680EF888354968D919C915597813F79
:10255000910508F48883ED5BFF4F56968C9180833C
:10256000DF91CF910895EF92FF920F931F93CF9336
:10257000DF93DC01942F9770E1E0F0E0092E01C0B9
:10258000EE0F0A94EAF71E2FED01C658DF4F88813F
:10259000823028F47E2F813019F410E001C070E001
:1025A00050E0487FD996ED90FC90DA97ED91FC9140
:1025B00011978089849FF001859FF00D1124E60F0B
:1025C000F11DEE0DFF1D01110CC02E0F8081872B18
:1025D000812781932E13FACF1DC0770F110F22236D
:1025E000C9F03081372B312730839F5F977021509E
:1025F0009111F3CFDD968C91DD97E80FF11D888165
:10260000823020F4813021F011E002C011E0E7CFE8
:1026100071E0E5CFDF91CF911F910F91FF90EF9087
:102620000895CF93DF931F92CDB7DEB76983BE01C4
:102630006F5F7F4F0E9445190F90DF91CF910895F2
:10264000EF92FF921F93CF93DF93EC01162F7A0145
:102650000E944C1260E4CE010E941113E885F985B6
:102660009701412F67E1CE010995CE01DF91CF910E
:102670001F91FF90EF900C944212EF92FF921F93E4
:10268000CF93DF9300D0CDB7DEB77C01142F673135
:1026900028F4653140F4643149F141C0673191F06B
:1026A0006A3170F03CC00E944C1260E0C7010E9489
:1026B0001113612FC7010E941113C7010E9442121A
:1026C00081E02EC0A901193160F068E1C7012983BA
:1026D0003A830E942013185129813A81285E3F4F86
:1026E000F1CF612FC7010E942013EACFDC0156967B
:1026F0008C9156978F3F19F488E756968C93D701A3
:102700001896ED91FC911997412F64E1C7010F9044
:102710000F90DF91CF911F91FF90EF90099480E08F
:102720000F900F90DF91CF911F91FF90EF90089540
:102730002F923F924F925F926F927F928F929F92D1
:10274000AF92BF92CF92DF92EF92FF920F931F93BF
:10275000CF93DF93EC014C0184E4880E911CF401CB
:1027600010822DAC5E01F5E4AF0EB11CF5012082A4
:10277000359730806E01F6E4CF0ED11CF601308221
:10278000359740807E01F7E4EF0EF11CF70140829F
:1027900034961081329760803196708032975080E5
:1027A000012F262D472D652DCE010E94D30BCC582D
:1027B000DF4F811102C0188212C081E0888355204A
:1027C00011F0F4015082621410F4F50160823714A4
:1027D00010F4F6017082141510F4F7011083DF91E4
:1027E000CF911F910F91FF90EF90DF90CF90BF900E
:1027F000AF909F908F907F906F905F904F903F90A1
:102800002F900895CF93DF93282F30E0F901EF5BED
:10281000FD4E8491F901E15AFD4ED491F901ED5834
:10282000FD4EC491CC2391F081110E942010EC2F19
:10283000F0E0EE0FFF1FE95CFD4EA591B491EC9125
:10284000ED2381E090E021F480E002C080E090E0A0
:10285000DF91CF9108951F93CF93DF93282F30E01E
:10286000F901EF5BFD4E8491F901E15AFD4ED491DF
:10287000F901ED58FD4EC491CC23C9F0162F8111FA
:102880000E942010EC2FF0E0EE0FFF1FE35DFD4EE5
:10289000A591B4918FB7F894111105C09C91ED2FBB
:1028A000E095E92302C0EC91ED2BEC938FBFDF9113
:1028B000CF911F910895CF93DF9390E0FC01E15AEF
:1028C000FD4E2491FC01ED58FD4E8491882361F169
:1028D00090E0880F991FFC01EB5AFD4EC591D491F1
:1028E000FC01E35DFD4EA591B491611109C09FB754
:1028F000F8948881209582238883EC912E230BC045
:10290000623061F49FB7F8943881822F80958323D9
:102910008883EC912E2B2C939FBF06C08FB7F89421
:10292000E8812E2B28838FBFDF91CF9108953FB789
:10293000F8948091950290919602A0919702B0919F
:10294000980226B5A89B05C02F3F19F00196A11D3E
:10295000B11D3FBFBA2FA92F982F8827820F911D35
:10296000A11DB11DBC01CD0142E0660F771F881F7C
:10297000991F4A95D1F708951F920F920FB60F92A3
:1029800011242F933F938F939F93AF93BF93809185
:10299000910290919202A0919302B0919402309191
:1029A000900223E0230F2D3720F40196A11DB11DC5
:1029B00005C026E8230F0296A11DB11D20939002A9
:1029C0008093910290939202A0939302B093940209
:1029D0008091950290919602A0919702B0919802F1
:1029E0000196A11DB11D8093950290939602A0932C
:1029F0009702B0939802BF91AF919F918F913F91B1
:102A00002F910F900FBE0F901F9018951F920F924D
:102A10000FB60F9211242F933F934F935F936F93B1
:102A20007F938F939F93AF93BF93EF93FF93809187
:102A3000B900887F803609F49CC068F5883209F4B3
:102A40005BC090F4803109F454C038F4882309F451
:102A5000F6C0883009F44DC0F6C0883109F44CC086
:102A6000803209F45DC0EFC0803409F468C048F4D6
:102A7000803309F455C0883309F0E5C08093220201
:102A8000D8C0803509F44FC0883509F45DC088345A
:102A900009F0D9C0D6C0883909F4C7C0A8F488376E
:102AA00009F467C038F4883609F463C0803709F444
:102AB00060C0C9C0883809F4B8C0803909F45FC063
:102AC000803809F0C0C05BC0803B09F486C038F490
:102AD000803A09F466C0883A09F47FC0B4C0803CEB
:102AE00009F4A7C0883C09F4A4C0883B09F48AC053
:102AF000AAC08091480210C090914702809146027E
:102B0000981770F5E091470281E08E0F809347029D
:102B1000F0E0EA5DFD4F80818093BB0085EC86C0CC
:102B2000809322028EC0E091470281E08E0F809355
:102B300047028091BB00F0E0EA5DFD4F80839091F9
:102B40004702809146026EC0E091470281E08E0FFD
:102B5000809347028091BB00F0E0EA5DFD4F8083E7
:102B60008091250281116DC081E08093240284EA66
:102B700061C083E08093230210928F02CFCF8091B7
:102B80008F02803208F051C0E0918F0281E08E0FF9
:102B900080938F028091BB00F0E0E159FD4F80836C
:102BA000BDCF85EC8093BC001092230280918F02F0
:102BB000803230F4E0918F02F0E0E159FD4F108255
:102BC00060918F0270E0E0916D02F0916E028FE6ED
:102BD00092E0099510928F0236C084E08093230220
:102BE00010926C0210926B02E0916902F0916A02FD
:102BF000099580916B02811105C081E080936B0281
:102C000010924902E0916C0281E08E0F80936C0279
:102C1000F0E0E75BFD4F80818093BB0090916C02F8
:102C200080916B02981708F479CF85E88093BC00F7
:102C30000AC085EC8093BC001092230204C010925D
:102C400022020E944910FF91EF91BF91AF919F9195
:102C50008F917F916F915F914F913F912F910F9045
:102C60000FBE0F901F901895FC01538D448D252F9A
:102C700030E0842F90E0821B930B541710F0CF9616
:102C8000089501970895FC01918D828D981761F048
:102C9000828DDF01A80FB11D5D968C91928D9F5F93
:102CA0009F73928F90E008958FEF9FEF0895FC013E
:102CB000918D828D981731F0828DE80FF11D858DF1
:102CC00090E008958FEF9FEF0895FC01918D228D84
:102CD000892F90E0805C9F4F821B91098F73992709
:102CE00008958AE992E00E94651621E0892B09F493
:102CF00020E0822F0895FC01848DDF01A80FB11D13
:102D0000A35ABF4F2C91848D90E001968F73992721
:102D1000848FA689B7892C93A089B1898C9180640E
:102D20008C93938D848D981306C00288F389E02DCF
:102D300080818F7D80830895EF92FF920F931F9380
:102D4000CF93DF93EC0181E0888F9B8D8C8D98135E
:102D500005C0E889F989808185FD24C0F62E0B8D98
:102D600010E00F5F1F4F0F731127E02E8C8DE812BC
:102D70000CC00FB607FCFACFE889F989808185FF7E
:102D8000F5CFCE010E947B16F1CF8B8DFE01E80FAF
:102D9000F11DE35AFF4FF0820B8FEA89FB89808196
:102DA000806207C0EE89FF896083E889F9898081A4
:102DB0008064808381E090E0DF91CF911F910F913B
:102DC000FF90EF900895CF93DF93EC01888D8823D7
:102DD000C9F0EA89FB89808185FD05C0A889B98988
:102DE0008C9186FD0FC00FB607FCF5CF808185FF63
:102DF000F2CFA889B9898C9185FFEDCFCE010E94D1
:102E00007B16E7CFDF91CF91089580E090E0892B8A
:102E100029F00E94711681110C94000008950E94FF
:102E2000901F1F920F920FB60F9211242F933F9372
:102E30004F935F936F937F938F939F93AF93BF93C2
:102E4000EF93FF938AE992E00E947B16FF91EF9146
:102E5000BF91AF919F918F917F916F915F914F91B2
:102E60003F912F910F900FBE0F901F9018951F92BA
:102E70000F920FB60F9211242F938F939F93EF937E
:102E8000FF93E091AA02F091AB028081E091B00241
:102E9000F091B10282FD12C090818091B3028F5FE8
:102EA0008F732091B402821751F0E091B302F0E0E9
:102EB000E656FD4F958F8093B30201C08081FF914C
:102EC000EF919F918F912F910F900FBE0F901F90B8
:102ED0001895CF92DF92EF92FF920F931F93CF93AB
:102EE000DF936C017A018B01C0E0D0E0CE15DF05E5
:102EF00089F0D8016D918D01D601ED91FC91019081
:102F0000F081E02DC6010995892B11F47E0102C0E4
:102F10002196ECCFC701DF91CF911F910F91FF90C8
:102F2000EF90DF90CF900895009769F0FC01019039
:102F30000020E9F73197AF01481B590BBC018AE922
:102F400092E00C94691780E090E00895FF920F934F
:102F50001F93CF93DF93C82FD62F10927A038A0145
:102F6000F12CF80161918F01E0916303F09164030A
:102F700081E693E009958F3FFFEF9F07E9F08E3FD1
:102F80002FEF920771F39C014D2F6C2F81E693E098
:102F90000E94BE0C2091BD03213049F030F0223058
:102FA00041F0233039F4D81B05C0C80F03C0D80F37
:102FB00001C0C81BF80ED5CF8F2DDF91CF911F9187
:102FC0000F91FF9008950F939091A7036917A0F0B8
:102FD0009091A803691780F49091A503891760F078
:102FE0009091A603891740F4462F682F00E021E056
:102FF00081E693E00E94F90B0F910895CF93DF9340
:10300000D82FC62F60E080915B030E942B14DEBD99
:1030100000000DB407FEFDCF8EB5CEBD00000DB48F
:1030200007FEFDCF8EB561E080915B03DF91CF910C
:103030000C942B148F929F92AF92BF92CF92DF92FB
:10304000EF92FF92CF934B015C0169017A0120E07E
:1030500030E0A901C701B6010E94D71E18161CF462
:10306000C12CD12C760120E030E0A901C501B401CA
:103070000E94D71E18161CF4812C912C540120E0BC
:1030800030E04CEF51E4C501B4010E947D1D9B016D
:10309000AC010E947E1D20E030E04FE753E40E9427
:1030A0007E1D4B015C0120E030E0A9010E94D71E8B
:1030B00020E030E040E05FE387FD05C0C501B401DA
:1030C0000E947E1D04C0C501B4010E947D1D0E94A6
:1030D000EF1DC62F6093590320E030E04CEF51E420
:1030E000C701B6010E947D1D9B01AC010E947E1D9F
:1030F00020E030E04FE753E40E947E1D6B017C012D
:1031000020E030E0A9010E94D71E20E030E040E03E
:103110005FE387FD05C0C701B6010E947E1D04C0A4
:10312000C701B6010E947D1D0E94EF1D60935A03E6
:103130008C2FCF91FF90EF90DF90CF90BF90AF900A
:103140009F908F900C94FE171F93CF93DF93182FAF
:10315000C3E4D3E08881229660E00E942B1483E0D0
:10316000CB34D807B9F761E0812FDF91CF911F9160
:103170000C942B148F929F92AF92BF920F931F9338
:10318000CF93DF93CDB7DEB7A1970FB6F894DEBF2C
:103190000FBECDBF19A2423008F44AE08E010F5D88
:1031A0001F4F842E912CA12CB12CA50194010E94BB
:1031B0004E1FE62FB901CA0101501109EA3014F47B
:1031C000E05D01C0E95CD801EC93232B242B252B77
:1031D00061F7C8010E949417A1960FB6F894DEBF5C
:1031E0000FBECDBFDF91CF911F910F91BF90AF90D8
:1031F0009F908F90089590914C03E92FF0E0EF5845
:10320000FE4F208130E002C0359527958A95E2F780
:103210002370291318C081E080934C0381E090E073
:1032200090935603809355039093580380935703CC
:103230000E94971460934D0370934E0380934F0345
:1032400090935003089520934C03223039F48091D9
:10325000570390915803880F991F09C02130A1F49A
:103260008091570390915803880F991F019690936E
:10327000580380935703809155039091560301960C
:10328000909356038093550308959B01DC01189693
:10329000ED91FC91199741E067E10994789484B528
:1032A000826084BD84B5816084BD85B5826085BD42
:1032B00085B5816085BD80916E00816080936E00D0
:1032C00010928100809181008260809381008091C2
:1032D0008100816080938100809180008160809373
:1032E00080008091B10084608093B1008091B00033
:1032F00081608093B00080917A00846080937A002E
:1033000080917A00826080937A0080917A00816057
:1033100080937A0080917A00806880937A0010927E
:10332000C100E091AA02F091AB0282E08083E091BB
:10333000A602F091A7021082E091A802F091A902E2
:1033400080E180831092B202E091AE02F091AF0270
:1033500086E08083E091AC02F091AD0280818061D3
:103360008083E091AC02F091AD028081886080831F
:10337000E091AC02F091AD02808180688083E091A1
:10338000AC02F091AD0280818F7D8083E091650376
:10339000F091660320E030E040E06AE081E693E0EF
:1033A000099581E693E00E94CA0E81E693E00E94AF
:1033B000910E8111FACF60E081E693E00E947E0ECB
:1033C000E0916503F091660320E030E040E06BE0BF
:1033D00081E693E0099584EB91E00E949417CFB7C2
:1033E000F89480919902811127C0EDE7F2E1849170
:1033F000E9E6F2E19491E82FF0E0EE0FFF1FEB5ABF
:10340000FD4EA591B491EC91E92321F461E08AE0AD
:103410000E942B1461E08AE00E945B148CB58061ED
:103420008CBD8CB580648CBD61E08DE00E945B1426
:1034300061E08BE00E945B14809199028F5F809322
:103440009902CFBF61E080915B030E945B1461E051
:1034500080915B030E942B1461E080915C030E94C9
:103460005B1461E080915C030E942B1460915A030D
:10347000809159030E94FE17609100017091010133
:1034800080910201909103019B01AC010E941A18E6
:103490000E94DC0ED1E088248394912C80914B0310
:1034A0000E9402148C016C01990FEE08FF088091B4
:1034B000510390915203A0915303B0915403C81645
:1034C000D906EA06FB0609F459C00E9497144090F9
:1034D0004D0350904E0360904F03709050039B013A
:1034E000AC01241935094609570929013A016093AD
:1034F0004D0370934E0380934F0390935003C092FB
:103500005103D0925203E0925303F0925403802F60
:1035100089019A010C5B1140210931090A371340D6
:103520002105310520F4882391F082E010C0B30119
:10353000A20146535540610971094937534061055D
:10354000710540F4811102C084E001C086E00E9450
:10355000FB1814C0D0934C039092560380925503ED
:1035600090925803809257030E94971460934D03E2
:1035700070934E0380934F039093500380915503B3
:10358000909156030E9709F077C18091570390915F
:10359000580310925803109257031092560310923A
:1035A00055038C0100271870012F112706950695E9
:1035B00006955C0120ECA22227E0B22236E0B69408
:1035C000A7943A95E1F79C01209530952227307118
:1035D00045E0369527954A95E1F78F73C82FC22BA2
:1035E0008EEB91E00E949417B50180E090E04AE0F4
:1035F0000E94BA1881EC91E00E9494176C2F70E041
:1036000080E090E04AE00E94BA1885EC91E00E94C8
:103610009417B80180E090E04AE00E94BA1889EC63
:1036200091E00E949417C0900001D0900101E090B9
:103630000201F0900301A7019601C701B6010E94A3
:10364000491F882319F08CEC91E01AC0260137013C
:10365000E89477F82FEF3FEF4FE75FE7C301B20140
:103660000E94491F81110FC02FEF3FEF4FE75FE727
:10367000C301B2010E94EA1D18162CF480ED91E0FE
:103680000E94941782C02FEF3FEF4FE75FE4C7011E
:10369000B6010E94D71E18161CF484ED91E0F0CFFD
:1036A0002FEF3FEF4FE75FECC701B6010E94EA1D25
:1036B00087FDF3CF20E030E0A901C701B6010E94E9
:1036C000EA1D87FF0FC0E0919A02F0919B020190E2
:1036D000F081E02D6DE28AE992E00995F7FAF09425
:1036E000F7F8F0942AE037ED43EA5BE3C701B6014F
:1036F0000E947E1D2B013C010E94F61D6B017C0186
:103700000E94251E9B01AC01C301B2010E947D1DD8
:103710002B013C014AE0C701B6010E94BA18E091B2
:103720009A02F0919B020190F081E02D6EE28AE90D
:1037300092E0099520E030E040E251E4C301B2019B
:103740000E94DC1E6B017C010E94F61D2B01612C86
:10375000712C4AE0C301B2010E94BA18C301B20140
:103760000E94251E9B01AC01C701B6010E947D1D70
:1037700020E030E040E251E40E94DC1E0E94F61D91
:1037800080E090E04AE00E94BA1889EC91E00E9443
:103790009417C031D1F4C0900001D0900101E090A5
:1037A0000201F090030120E030E0A901C701B60159
:1037B0000E94EA1D87FF52C020E030E040E85FE34E
:1037C000C701B6010E947E1D1CC0C13119F5C09011
:1037D0000001D0900101E0900201F090030120E08F
:1037E00030E04EEB52ECC701B6010E94D71E18160E
:1037F000ACF520E030E040E85FE3C701B6010E948D
:103800007D1D6093000170930101809302019093EC
:10381000030124C0C53219F486E090E00EC0C63220
:1038200019F481E190E009C0C73219F480E190E019
:1038300004C0C93129F48FE090E00E94A4180EC0A2
:10384000CC3061F434E1A316B10441F4012B11F43E
:1038500060E001C061E082E00E942B1460910001F1
:103860007091010180910201909103019B01AC01D3
:103870000E941A180E94DC0E0E9405170FCE0F93AB
:103880001F93CF93DF9310929D0210929C0288EEBB
:1038900093E0A0E0B0E080939E0290939F02A093FB
:1038A000A002B093A10229E731E030939B0220935C
:1038B0009A0225EC30E03093A7022093A60224EC74
:1038C00030E03093A9022093A80220EC30E030933E
:1038D000AB022093AA0221EC30E03093AD0220939A
:1038E000AC0222EC30E03093AF022093AE0226EC23
:1038F00030E03093B1022093B0021092B3021092E4
:10390000B4021092B5021092B60210923A031092CD
:10391000390380933B0390933C03A0933D03B09302
:103920003E038BE891E09093380380933703109225
:10393000600310925F0386E592E19093DE0380932B
:10394000DD031092DF031092E00310927A038DE9F9
:1039500091E090935E0380935D0310926203109256
:10396000610310927603109279038FEF80937703AF
:1039700080937C03E0E8F3E09FEF86E18E0FCFEFCA
:1039800091938E13FCCF89E891E190936603809325
:1039900065038DE393E1909368038093670384E666
:1039A0009AE090936A038093690380E39BE090938D
:1039B0006C0380936B0320E030E040E069E081E637
:1039C00093E00E9489111092AE031092AD0383EB35
:1039D00092E1909397038093960381EE93E0909306
:1039E0009B0380939A03D1E0D0939C0310929D0394
:1039F0001092BA031092DA03D093DB03D093DC0366
:103A000085EA91E0909399038093980381E693E08F
:103A10000E946D121092A9031092AB03C093AA03E7
:103A2000C093AC03E0919803F09199030280F38175
:103A3000E02D81E693E009958FE699E09093B0033D
:103A40008093AF031092BD03C0938B03C0938C038C
:103A5000C0938D031092590310925A0389E080930A
:103A60005B0387E080935C03C8E0C0934B0362E094
:103A700088E00E945B14D0934C0381E090E0909327
:103A800056038093550390935803809357030E94E5
:103A9000971460934D0370934E0380934F0390935C
:103AA0005003E9E6F1E0A3E4B3E001900D92CA957A
:103AB000E1F761E082E00E945B14C3E4D3E08E0191
:103AC000F80180810E5F1F4F61E00E945B14F3E0FC
:103AD0000B341F07A9F760E082E00E942B14888155
:103AE000229660E00E942B1483E0CB34D807B9F70C
:103AF000DF91CF911F910F9108955058BB27AA27AE
:103B00000E94951D0C949D1E0E948F1E38F00E94ED
:103B1000961E20F039F49F3F19F426F40C948C1E65
:103B20000EF4E095E7FB0C94861EE92F0E94AE1E72
:103B300058F3BA17620773078407950720F079F4E2
:103B4000A6F50C94D01E0EF4E0950B2EBA2FA02DE6
:103B50000B01B90190010C01CA01A0011124FF273A
:103B6000591B99F0593F50F4503E68F11A16F04035
:103B7000A22F232F342F4427585FF3CF4695379534
:103B80002795A795F0405395C9F77EF41F16BA0BF9
:103B9000620B730B840BBAF09150A1F0FF0FBB1FA7
:103BA000661F771F881FC2F70EC0BA0F621F731FF0
:103BB000841F48F4879577956795B795F7959E3F4D
:103BC00008F0B0CF9395880F08F09927EE0F9795DE
:103BD000879508950E94621E08F481E008950E946E
:103BE000F61D6894B1110C94D11E08950E94B61E62
:103BF00088F09F5798F0B92F9927B751B0F0E1F0AE
:103C0000660F771F881F991F1AF0BA95C9F714C05D
:103C1000B13091F00E94D01EB1E008950C94D01EF6
:103C2000672F782F8827B85F39F0B93FCCF3869596
:103C300077956795B395D9F73EF4909580957095F3
:103C400061957F4F8F4F9F4F0895E89409C097FB70
:103C50003EF490958095709561957F4F8F4F9F4F63
:103C60009923A9F0F92F96E9BB279395F6958795A7
:103C700077956795B795F111F8CFFAF4BB0F11F46A
:103C800060FF1BC06F5F7F4F8F4F9F4F16C0882311
:103C900011F096E911C0772321F09EE8872F762F47
:103CA00005C0662371F096E8862F70E060E02AF088
:103CB0009A95660F771F881FDAF7880F9695879574
:103CC00097F90895990F0008550FAA0BE0E8FEEF49
:103CD00016161706E807F907C0F012161306E407D0
:103CE000F50798F0621B730B840B950B39F40A26C9
:103CF00061F0232B242B252B21F408950A2609F4A7
:103D0000A140A6958FEF811D811D089597F99F67AA
:103D100080E870E060E008959FEF80EC0895002453
:103D20000A941616170618060906089500240A9420
:103D300012161306140605060895092E0394000CA6
:103D400011F4882352F0BB0F40F4BF2B11F460FF35
:103D500004C06F5F7F4F8F4F9F4F089557FD90585E
:103D6000440F551F59F05F3F71F04795880F97FB3F
:103D7000991F61F09F3F79F08795089512161306F9
:103D80001406551FF2CF4695F1DF08C01616170628
:103D90001806991FF1CF869571056105089408955D
:103DA000E894BB2766277727CB0197F908950E94EF
:103DB000621E08F48FEF08950E94EF1E0C949D1E62
:103DC0000E948F1E38F00E94961E20F0952311F05D
:103DD0000C94861E0C948C1E11240C94D11E0E94EF
:103DE000AE1E70F3959FC1F3950F50E0551F629F73
:103DF000F001729FBB27F00DB11D639FAA27F00D44
:103E0000B11DAA1F649F6627B00DA11D661F829F6A
:103E10002227B00DA11D621F739FB00DA11D621F4F
:103E2000839FA00D611D221F749F3327A00D611D6C
:103E3000231F849F600D211D822F762F6A2F11244E
:103E40009F5750409AF0F1F088234AF0EE0FFF1F81
:103E5000BB1F661F771F881F91505040A9F79E3FD8
:103E6000510580F00C94861E0C94D11E5F3FE4F344
:103E7000983ED4F3869577956795B795F795E7952E
:103E80009F5FC1F7FE2B880F911D9695879597F937
:103E900008950E94621E880B990B0895A1E21A2EC4
:103EA000AA1BBB1BFD010DC0AA1FBB1FEE1FFF1FDE
:103EB000A217B307E407F50720F0A21BB30BE40B2E
:103EC000F50B661F771F881F991F1A9469F7609575
:103ED0007095809590959B01AC01BD01CF0108952F
:103EE0000E94811FA59F900DB49F900DA49F800DEF
:103EF000911D11240895EE0FFF1F0590F491E02D00
:103F00000994A29FB001B39FC001A39F700D811DB2
:103F10001124911DB29F700D811D1124911D0895D2
:103F200081E090E0F8940C947422DC0101C06D9360
:103F300041505040E0F70895AEE0B0E0E2EAFFE122
:103F40000C944B220D891E8986E08C831A83098389
:103F50008FEF9FE79E838D83AE01475E5F4F6F8932
:103F6000788DCE0101960E94BF1F2F813885F80100
:103F7000E20FF31F10822E96E4E00C946722ACE06F
:103F8000B0E0E5ECFFE10C943D227C016B018A017D
:103F9000FC0117821682838181FFBDC1CE0101968B
:103FA0004C01F7019381F60193FD859193FF819177
:103FB0006F01882309F4ABC1853239F493FD8591F3
:103FC00093FF81916F01853229F4B70190E00E943F
:103FD000A721E7CF512C312C20E02032A0F48B32E6
:103FE00069F030F4803259F0833269F420612CC0DA
:103FF0008D3239F0803339F4216026C0226024608C
:1040000023C0286021C027FD27C030ED380F3A308B
:1040100078F426FF06C0FAE05F9E300D1124532E7F
:1040200013C08AE0389E300D1124332E20620CC05C
:104030008E3221F426FD6BC1206406C08C3611F44B
:10404000206802C0883641F4F60193FD859193FF04
:1040500081916F018111C1CF982F9F7D955493302D
:1040600028F40C5F1F4FFFE3F9830DC0833631F056
:10407000833771F0833509F05BC022C0F80180817D
:1040800089830E5F1F4F44244394512C540115C063
:104090003801F2E06F0E711CF801A080B18026FF9C
:1040A00003C0652D70E002C06FEF7FEFC5012C8764
:1040B0000E949C212C0183012C852F77222E17C072
:1040C0003801F2E06F0E711CF801A080B18026FF6C
:1040D00003C0652D70E002C06FEF7FEFC5012C8734
:1040E0000E9491212C012C852068222E830123FC23
:1040F0001BC0832D90E048165906B0F4B70180E24A
:1041000090E00E94A7213A94F4CFF50127FC859115
:1041100027FE81915F01B70190E00E94A721311035
:104120003A94F1E04F1A51084114510471F7E5C077
:10413000843611F0893639F5F80127FF07C0608110
:104140007181828193810C5F1F4F08C060817181F2
:10415000072E000C880B990B0E5F1F4F2F76722EC7
:1041600097FF09C090958095709561957F4F8F4F0F
:104170009F4F2068722E2AE030E0A4010E94DF21C8
:10418000A82EA81844C0853729F42F7EB22E2AE025
:1041900030E025C0F22FF97FBF2E8F36C1F018F422
:1041A000883579F0B4C0803719F0883721F0AFC076
:1041B0002F2F2061B22EB4FE0DC08B2D8460B82E3F
:1041C00009C024FF0AC09F2F9660B92E06C028E0C0
:1041D00030E005C020E130E002C020E132E0F8012B
:1041E000B7FE07C060817181828193810C5F1F4F90
:1041F00006C06081718180E090E00E5F1F4FA401D6
:104200000E94DF21A82EA818FB2DFF777F2E76FEB7
:104210000BC0372D3E7FA51450F474FE0AC072FC0B
:1042200008C0372D3E7E05C0BA2C372D03C0BA2CEE
:1042300001C0B52C34FF0DC0FE01EA0DF11D8081D7
:10424000803311F4397E09C032FF06C0B394B394B1
:1042500004C0832F867809F0B39433FD13C030FF78
:1042600006C05A2CB31418F4530C5B18B32CB314B7
:1042700068F4B70180E290E03C870E94A721B394E4
:104280003C85F5CFB31410F43B1801C0312C34FF3A
:1042900012C0B70180E390E03C870E94A7213C85D3
:1042A00032FF17C031FD03C088E790E002C088E507
:1042B00090E0B7010CC0832F867859F031FF02C01F
:1042C0008BE201C080E237FD8DE2B70190E00E94F1
:1042D000A721A51438F4B70180E390E00E94A7213C
:1042E0005A94F7CFAA94F401EA0DF11D8081B70129
:1042F00090E00E94A721A110F5CF332009F451CE00
:10430000B70180E290E00E94A7213A94F6CFF7012E
:104310008681978102C08FEF9FEF2C96E2E10C948B
:104320005922FC010590615070400110D8F780952A
:1043300090958E0F9F1F0895FC0161507040019071
:104340000110D8F7809590958E0F9F1F08950F93B9
:104350001F93CF93DF93FB01238121FD03C08FEFD8
:104360009FEF28C022FF16C04681578124813581E6
:104370004217530744F4A081B1819D012F5F3F4F45
:10438000318320838C93268137812F5F3F4F378382
:10439000268310C0EB01092F182F0084F185E02D32
:1043A0000995892BE1F68E819F8101969F838E83EB
:1043B000812F902FDF91CF911F910F910895FA01D6
:1043C000AA27283051F1203181F1E8946F936E7F54
:1043D0006E5F7F4F8F4F9F4FAF4FB1E03ED0B4E045
:1043E0003CD0670F781F891F9A1FA11D680F791F86
:1043F0008A1F911DA11D6A0F711D811D911DA11D97
:1044000020D009F468943F912AE0269F11243019A6
:10441000305D3193DEF6CF010895462F4770405D41
:104420004193B3E00FD0C9F7F6CF462F4F70405DF0
:104430004A3318F0495D31FD4052419302D0A9F74B
:10444000EACFB4E0A6959795879577956795BA9545
:10445000C9F700976105710508959B01AC010A2E0B
:1044600006945795479537952795BA95C9F7620FE2
:10447000731F841F951FA01D08952F923F924F9286
:104480005F926F927F928F929F92AF92BF92CF92E4
:10449000DF92EF92FF920F931F93CF93DF93CDB7ED
:1044A000DEB7CA1BDB0B0FB6F894DEBF0FBECDBF65
:1044B00009942A88398848885F846E847D848C8436
:1044C0009B84AA84B984C884DF80EE80FD800C813F
:1044D0001B81AA81B981CE0FD11D0FB6F894DEBF22
:0C44E0000FBECDBFED010895F894FFCF92
:1044EC000000A0C11815A015C019FF1815A115C8FA
:1044FC0019FF1815AE19FF1815AF19FF1815AE15C1
:10450C00D5168015A8163F15D316001540158D1617
:10451C00141520160015A115C815DA1612158116DA
:10452C00CF15D916F115DB1640152E15A415A619A5
:10453C00FF0001140A6464323200093D00030428B0
:10454C009610080202800040000600110010000FB7
:10455C000001919BFB000000009C1669173416E3C8
:10456C001665164316571600000000D110A1104D09
:10457C000A7B1099108A107C1000000000530E2446
:10458C000A4D0A4C0A6D1298136012256964420098
:10459C00445644005354415254202D203100613A6A
:1045AC000020633A0020743A000D0A006E616E0020
:0845BC00696E66006F7666006F
:107800000C94343C0C94513C0C94513C0C94513CE1
:107810000C94513C0C94513C0C94513C0C94513CB4
:107820000C94513C0C94513C0C94513C0C94513CA4
:107830000C94513C0C94513C0C94513C0C94513C94
:107840000C94513C0C94513C0C94513C0C94513C84
:107850000C94513C0C94513C0C94513C0C94513C74
:107860000C94513C0C94513C11241FBECFEFD8E036
:10787000DEBFCDBF11E0A0E0B1E0ECE9FFE702C060
:1078800005900D92A230B107D9F712E0A2E0B1E065
:1078900001C01D92AD30B107E1F70E942D3D0C945F
:1078A000CC3F0C94003C982F959595959595959582
:1078B000905D8F708A307CF0282F295A8091C0000B
:1078C00085FFFCCF9093C6008091C00085FFFCCF60
:1078D0002093C6000895282F205DF0CF982F809127
:1078E000C00085FFFCCF9093C6000895EF92FF92F1
:1078F0000F931F93EE24FF2487018091C00087FD22
:1079000017C00894E11CF11C011D111D81E4E8164B
:1079100082E4F8068FE0080780E0180770F3E09132
:107920000401F091050109958091C00087FFE9CF1E
:107930008091C6001F910F91FF90EF9008950E94D3
:10794000763C982F8091C00085FFFCCF9093C600B5
:1079500091362CF490330CF09053892F089597555D
:10796000892F08951F930E949F3C182F0E949F3CCF
:107970001295107F810F1F9108951F93182F882350
:1079800021F00E94763C1150E1F71F9108951F935A
:10799000182F0E94763C803249F0809103018F5F5E
:1079A000809303018530C1F01F9108958091C0003C
:1079B00085FFFCCF84E18093C6008091C00085FFE5
:1079C000FCCF1093C6008091C00085FFFCCF80E102
:1079D0008093C6001F910895E0910401F091050184
:1079E00009951F9108950E94763C803241F0809164
:1079F00003018F5F80930301853081F008958091AA
:107A0000C00085FFFCCF84E18093C6008091C00058
:107A100085FFFCCF80E18093C6000895E0910401CA
:107A2000F09105010995089540E951E08823A1F0FE
:107A30002D9A28EE33E0FA013197F1F721503040CA
:107A4000D1F72D9828EE33E0FA013197F1F7215064
:107A50003040D1F7815061F708953F924F925F9285
:107A60006F927F928F929F92AF92BF92CF92DF924E
:107A7000EF92FF920F931F93CF93DF93000080E16B
:107A80008093C4001092C50088E18093C10086E015
:107A90008093C2005098589A259A81E00E94143D24
:107AA00024E1F22E9EE1E92E85E9D82E0FE0C02ECA
:107AB00010E1B12EAA24A394B1E49B2EA6E58A2E50
:107AC000F2E57F2EE0E26E2E79E4572E63E5462E36
:107AD00050E5352E0E94763C8033B1F18133B9F107
:107AE000803409F46FC0813409F476C0823409F41B
:107AF00085C0853409F488C0803531F1823521F1A3
:107B0000813511F1853509F485C0863509F48DC0BC
:107B1000843609F496C0843709F403C1853709F423
:107B200072C1863709F466C0809103018F5F80932C
:107B30000301853079F6E0910401F0910501099582
:107B40000E94763C803351F60E94F33CC3CF0E94E2
:107B5000763C803249F78091C00085FFFCCFF092DF
:107B6000C6008091C00085FFFCCF9092C600809136
:107B7000C00085FFFCCF8092C6008091C00085FFC9
:107B8000FCCF7092C6008091C00085FFFCCF609250
:107B9000C6008091C00085FFFCCF5092C600809146
:107BA000C00085FFFCCF4092C6008091C00085FFD9
:107BB000FCCF3092C6008091C00085FFFCCFB09210
:107BC000C60088CF0E94763C863808F4BDCF0E945C
:107BD000763C0E94F33C7ECF0E94763C803809F4CC
:107BE0009CC0813809F40BC1823809F43CC1883942
:107BF00009F48FC080E00E94C73C6CCF84E10E94F2
:107C0000BD3C0E94F33C66CF85E00E94BD3C0E94D3
:107C1000F33C60CF0E94763C809306010E94763C44
:107C2000809307010E94F33C55CF0E94763C80333D
:107C300009F41DC183E00E94BD3C80E00E94C73C66
:107C400049CF0E94763C809309020E94763C809343
:107C5000080280910C028E7F80930C020E94763C79
:107C6000853409F415C18091080290910902892B8D
:107C700089F000E010E00E94763CF801E85FFE4FDA
:107C800080830F5F1F4F80910802909109020817AF
:107C9000190788F30E94763C803209F045CF809125
:107CA0000C0280FF01C16091060170910701660F0F
:107CB000771F7093070160930601A0910802B091AD
:107CC00009021097C9F0E8E0F1E09B01AD014E0F09
:107CD0005F1FF999FECF32BD21BD819180BDFA9A17
:107CE000F99A2F5F3F4FE417F50799F76A0F7B1F4B
:107CF00070930701609306018091C00085FFFCCF5F
:107D0000F092C6008091C00085FFFCCFB092C60003
:107D1000E1CE83E00E94C73CDDCE82E00E94C73CFA
:107D2000D9CE0E94763C809309020E94763C8093D3
:107D300008028091060190910701880F991F909386
:107D40000701809306010E94763C853409F4A6C0A1
:107D500080910C028E7F80930C020E94763C8032D0
:107D600009F0B8CE8091C00085FFFCCFF092C6002C
:107D7000609108027091090261157105B9F140E046
:107D800050E080910C02A82FA170B82FB27011C0E2
:107D9000BB2309F45CC0E0910601F0910701319624
:107DA000F0930701E09306014F5F5F4F46175707B7
:107DB000E8F4AA2369F3F999FECF209106013091E6
:107DC000070132BD21BDF89A90B58091C00085FFB2
:107DD000FCCF9093C6002F5F3F4F30930701209355
:107DE00006014F5F5F4F4617570718F38091C00099
:107DF00085FDE5CE8091C00085FFF8CFE0CE81E023
:107E00000E94C73C67CE0E94763C803209F08CCE3F
:107E10008091C00085FFFCCFF092C6008091C00029
:107E200085FFFCCFE092C6008091C00085FFFCCFAB
:107E3000D092C6008091C00085FFFCCFC092C600E2
:107E40008091C00085FFFCCFB092C60043CEE09188
:107E50000601F091070194918091C00085FFFCCF4D
:107E60009093C6009CCF80E10E94C73C33CE0E9415
:107E7000763C0E94763C182F0E94763C112309F430
:107E800083C0113009F484C08FE00E94C73C22CE29
:107E900080910C02816080930C02E5CE80910C02EF
:107EA000816080930C0259CF809107018823880F4D
:107EB000880B8A2180930B02809106019091070123
:107EC000880F991F90930701809306018091080203
:107ED00080FF09C080910802909109020196909359
:107EE000090280930802F894F999FECF1127E091D6
:107EF0000601F0910701C8E0D1E08091080290915D
:107F00000902103091F40091570001700130D9F34B
:107F100003E000935700E89500915700017001308D
:107F2000D9F301E100935700E89509901990009169
:107F3000570001700130D9F301E000935700E89534
:107F40001395103498F011270091570001700130FB
:107F5000D9F305E000935700E895009157000170B0
:107F60000130D9F301E100935700E895329602976A
:107F700009F0C7CF103011F00296E5CF112480919F
:107F8000C00085FFB9CEBCCE8EE10E94C73CA2CD19
:0C7F900085E90E94C73C9ECDF894FFCF0D
:027F9C00800063
:040000030000780081
:00000001FF