:100000000C9445090C944C160C9425160C946D090F
:100010000C946D090C946D090C946D090C946D0988
:100020000C946D090C946D090C946D090C946D0978
:100030000C946D090C946D090C946D090C946D0968
:100040000C94DB150C946D090C945A130C94341316
:100050000C946D090C946D090C946D090C946D0948
:100060000C9473160C946D09000000002500280004
:100070002B000000000023002600290000000008DB
:10008000000201000003040700000000000000005F
:1000900000000000240027002A00010204081020AC
:1000A000408001020408102001020408102004040A
:1000B0000404040404040202020202020303030310
:1000C0000303BF0004030505030606181D00FA110B
:1000D000FB11FB02D705E611A8200600F03601212E
:1000E00009221A34E18322022209C6744541844F51
:1000F0000423292B166C49444A444A4448444A4440
:10010000E660E260464448444A44E660E2604644B1
:100110004A4448444A444A44080024278BD66B2B5F
:10012000B0E8404424A42686264A264C24EC59886C
:10013000588C548C540C4D4C4988C88150616814BB
:1001400000252D3416B48550CA4E68644A91322178
:100150006523338236A244F220F22042A432863252
:10016000236342CA8454498D0CC95909920026253B
:100170002E168469B450464E464E465042B274D252
:100180006E4446446644426A421989DC8C14CD416F
:1001900051CD002708C27425E1A0002813C57A4379
:1001A0004744464446898CFE918C2219210129142A
:1001B000C576434148464846918CFE898C121911F8
:1001C00019002A12E75855272C462242A2664642B9
:1001D000242602002B0E4A99744950A3830323411D
:1001E0008D002C0982D833814202002D0846B44488
:1001F000E1A0002E0742183481002F1227123C4B39
:100200009194222945528AA41449A90230162B162A
:100210006C69EC668994841CFF4E424A6466E66C05
:100220000800310C261A6C49E6E02048FF0F321A0C
:100230002B166CA7E840646662AA4E52706EAC8AB8
:100240006C6EA1E0E0C18300331D2B166CA7E84063
:10025000646662AA4E5070AAAC72B28EAE6A6266D2
:10026000E440A80600341F2B166C6F8EAC4C426A1B
:10027000426844484666466448444A624AE2E0416D
:10028000A0A41600351C2B166CE540E440445052E7
:10029000E141CCC184D4E4A44A32A39103A11A0061
:1002A000361E2B166C89EA206448448C5209CDC155
:1002B00004CDC4541DBBAA89999103A11A00371615
:1002C0002B166CE18340C141C141C141C14149C1CB
:1002D0004149CD00381D2B166C69EC484695889431
:1002E00088948CA2372BA6EAE8AA2666460E846A72
:1002F00000391F2B166CA7E840646662AA8E5DD594
:10030000C40CC5C14C85A4249988D0C841141100DF
:100310003A09821934811E82003B0BC2D933811EF7
:10032000824202003C160C16743772706E706E704A
:100330006E7276747674767436003D0C0CB574E18A
:1003400083796C0E1E0C3E170C167421767476742D
:10035000767476726E706E706E703216003F152A6B
:10036000166487E8204448428C4C6E6C9D42F50828
:100370001501403EB696C3D1FC6074704E584A5C7D
:1003800028AC2A46E842442468882642484C8846DD
:100390004E88464C8A464C2A42464A499036320795
:1003A0002243513364F260F26073C207F200950099
:1003B00041232F127C6D78B65442544272625046EB
:1003C00050466E664C4A6AD101D101CDDC88A4C486
:1003D000A4E50042222D1A84E140E880444E4450B6
:1003E00042504250426EE280E4A042504292871254
:1003F0000715073300431D30168CEBEE80888A64A6
:100400005244B6965CE7B312B21293325444077466
:100410004700441E2E1A8CE140EA80468C4470420C
:100420005242B2942F2B250427C4480E680EA40014
:1004300045122D1A84E1B7BA3D20392091D5DB83CE
:10044000070546102D1A7CE1B7BA3D20392091D519
:100450006F014720301694EBEE80888A645244B6D0
:10046000965CBB03B98359095989C911AA9A03AB90
:100470009B00480E2D1A8C41925F1E7C20C95F0A9A
:100480004908221A34E107064A112A126451FF432F
:10049000323209219183201A004B282E1A84417090
:1004A000426E446C466A48684A664C644EA2EC2030
:1004B0008C646A68484C486C466E44504470427282
:1004C000004C0C2B1A6C4152FF5F1E3C084D24302F
:1004D0001AA44198B8D4F4F020F040EC424C826267
:1004E000688244488464098D880C8D0D11AFA4A8DE
:1004F000144E212E1A9441B4D2F08E428E628C6436
:100500008A6688488868866A846C824E82EED0B299
:1005100054004F1D31169CEBF0808ACDE488ACC4AA
:100520006C35AF6B2764452667A8A80E08AF00504E
:10053000172E1A84E180E6C04252429497120716A1
:100540000734C2FA1800512471D69BEBF0808ACD93
:10055000E488ACC46C35AFEB6226C44644C66CA8D4
:10056000A80EEA2EE601E601220052272F1A8CE19E
:1005700080E8C0445244544254425442544252E4EB
:10058000C0E4A04670445244544254425442B456CB
:1005900000531F2E1684C9EC60486C445044585ACE
:1005A000F840EE40585A98B452824CE680EA060071
:1005B000540D301284E10774E2FAFF0E0055122D3B
:1005C0001A8C4192FF9712722253330762450056EC
:1005D000242F127C61D2724252646E464E484E689D
:1005E0006A4AD9CC9C8CA08CE0C4A484A88468ED11
:1005F000F0180057333612B441509050B04E6E424E
:100600008C4C448C4C64C868464844481321A191E2
:10061000AD448444C4448444C48CECC808C928054F
:1006200045054505A500582131128C41BA76627204
:10063000666E6ADDCCE4C46CF574EDC4E4CCDCD445
:10064000BA99C989D96A01591630128441B87462BD
:1006500070666C6A686E64D2965A5C7F075A182E70
:100660001274E3A0E4A074567674567674ADECE888
:10067000ACECE8C1075B0DC47A3BE16044FFFFE4EA
:1006800020005C1227123C414A4C4A999432296559
:1006900052CAA4145D0DC4763BE12044FFFFE46020
:1006A000005E0C89B45D67AA6662424A005F084D2D
:1006B000B06BE18302600A86B44561684A2C006130
:1006C000198C156C87EC2048ADE4D48D85C89488CE
:1006D00098C8D0CC0149C90062172B1A7441522F17
:1006E0006A0E268626C4EA78663471302151036387
:1006F000168B156489EA206468428C52533189A1B3
:100700009183281A0064172B1674536F2A240E261F
:1007100086CCE8B82B93189A3898A91065178C15D1
:100720007489EC206668444C42F0E05BD1A99103E7
:10073000A91A00661026123467844448C94189907A
:10074000FE0900671D2B7673A742E26062C88C8E9B
:10075000BB3289A18983990A491552220742350083
:100760006811291A6C414E2F660E226624A4F85790
:1007700002690A221A3481ECE0C1006A0DC47233A6
:1007800045B988FE9F1C48006B1B2A1A6441508F94
:1007900026644644662486AA8C2666B419119A906B
:1007A00092901A6C08221A34E107066D219019A460
:1007B000418286E420C2628646424A8A4A8A4A8A3E
:1007C0004A8A4A8A4A8A4A8A4A8A4A016E0F89199B
:1007D0006C4162E6206246428A7F256F168C157452
:1007E000C7E860646862AC90C3B289A19183211BA1
:1007F0000070182B7A7341A2E660626842AC8E6783
:1008000046130713123592BA0471172B7673A74259
:10081000E26062C88C8EBB3289A18983990A493D06
:10082000720D8619444184E26446483F0273158A7A
:100830001564A5E82062484290EECA8E90EAA0C6F0
:100840000400740EE611344548C94189907E443352
:10085000750F89196C418A7F2521337110332176F8
:10086000198B115C418EAE6A424A646646918CD007
:10087000C4948458DDE010007722921194414C8C8E
:100880004CAC886842884864C464464423118D4C4B
:10089000AC88C888E8C404C5840078168B115C4114
:1008A000AE6A6266C554DDE05CD5C4CC8AA93A0163
:1008B000791E2B725B418EAE6A424A646646918C09
:1008C000D0C4948458DDE0A0E0A058191D007A102F
:1008D0008B115CE360E2606E8773DB1D3C087B126A
:1008E000C6764B49666446486F144929D2A345022F
:1008F0007C0BE25A33E181D9C181017D14C6764B6C
:100900004168484A48AF14C928D21B991921007E72
:100910000E8BB47583E84084E440880200A0060092
:10092000F03601A10A221A3481E8E04101A2220B2B
:10093000D66B31528CEA2064A44226844648264A6B
:10094000264A444C22488266E420A84A321000B865
:10095000182B166CA9EA66899488A4BAA33B490DA2
:10096000054D0E2C442A00A4186BB56C232E628B07
:100970000319AD44A444A464D41C486C111701A508
:100980001A2C126C419050424C46482B113942AA05
:10099000833151B18331515D01A609221A34E1D965
:1009A000C101A72ACB966BA7EA668994C890CC5C54
:1009B000D5C490CC8CD0C8D0C8D0C890CC8CD0C472
:1009C00054DD8CD08894C8CCCC550D00A80946F4D1
:1009D0004541844400A930301AA4CB70684A50467F
:1009E00086462446442642444864464846A58CA48C
:1009F0008CA48C90CC889088448C884C880C8D4238
:100A0000A9A1412B00AA1467D544834485880C8989
:100A1000841209119109B98303AB1209596C272873
:100A200044464246424644466F8202AC09CB947427
:100A3000E183481DAD0846B444E1A000AE32301A4F
:100A4000A4CB70684A5046C24624444626424448D5
:100A50006446484623192B1945324232234222125A
:100A60002142222112421232825243835600AF08A1
:100A70004D506EE18302B00EC674454586428444F3
:100A800082460400B1120C16744B5457070FA6444B
:100A9000750F7EF06000B20C06353D834244484637
:100AA0004706A81006353D83424448644A8844827C
:100AB0000200B40B86B445676444260A00B5200AD8
:100AC0009A6B414A424A424A424A424A424A424A4E
:100AD000424A424A6266E2A06284504300B62A4A11
:100AE000B663E7A224A424C224C224A424A42468B4
:100AF000242C242C242C242C242C242C242C242C76
:100B0000242C242C240200B7074218358100B80B8E
:100B1000A57843236848C60200B90804353DC5449A
:100B20001FBA0F67D5446546420D37126A260F0E6D
:100B3000BB1209596C2128469FC848C848C8880478
:100B4000C500BC2330169445508450484E4A4C573B
:100B500072428242D2CA544D4911494908299191A1
:100B60003211151115BD2230169445508450484E4F
:100B70004A4C5772428242D26AE84454C909C94970
:100B800089498949892933BE25301694834E449971
:100B90002AA9294121411929117534D2CA544D4934
:100BA000114949082991913211151115BF152A16BD
:100BB0006449501EA17663DB098A49084D1C04D1A3
:100BC00000C0232F127C6D78B6544254427262509A
:100BD0004650466E664C4A6AD101D101CDDC88A4EC
:100BE000C4A4E500C11A2D1A84E1A0E2A04256B7C0
:100BF000072407158212923C9438A8389801C22223
:100C00002D1A84E140E880444E4450425042504204
:100C10006EE280E4A042504292871207150733002B
:100C2000C30B2D1A84E1B7FAFF1600C41570D693D2
:100C3000E960EC604CFFFF7F252772F08131B10045
:100C4000C5122D1A84E1B7BA3D20392091D5DB8336
:100C50000705C6353812C44350C99CDCCC98D8D49B
:100C600094D4DC90D0E48CCCEC88C8F484C4F8C173
:100C7000F8C1F488C8EC8CCCE490D0DC94D432B1C8
:100C80009939B98941C101C71B2E1684C9EC606628
:100C90006C445058ED9CA1F16261D2C28983A203D9
:100CA0001100C81C2E1A944194CB42BBB309AA115F
:100CB000A2199A2192298AB13BC34A525201C920F2
:100CC0008E1A946764CE924A94CB42BBB309AA11A0
:100CD000A2199A2192298AB13BC34A525201CA28C9
:100CE0002E1A844170426E446C466A48684A664CCB
:100CF000644EA2EC208C646A68484C486C466E4492
:100D0000504470427200CB262C167CE560E46044AF
:100D10004C444C444C444C444C444C444C444C4453
:100D20004C444C444C444C44CCAC4E00CC24301A83
:100D3000A44198B8D4F4F020F040EC424C826268B0
:100D40008244488464098D880C8D0D11AFA4A814C9
:100D5000CD0E2D1A8C41925F1E7C20C95F0ACE1DDC
:100D600031169CEBF0808ACDE488ACC46C35AF6B57
:100D70002764452667A8A80E08AF00CF0B2D1A8C54
:100D8000E197FCFF5200D0172E1A84E180E6C042A2
:100D9000524294971207160734C2FA1800D11D3038
:100DA000168CEBEE80888A645244B6965CE7B312E8
:100DB000B2129332544407744700D20D301284E1CA
:100DC0000774E2FAFF0E00D31F2C16744190B06C2A
:100DD000424C444C6468464868644A444C448E9093
:100DE000E1E4581D1D00D42D3216A4EB20F0A08A9A
:100DF0004484664868444AC5945499189918995887
:100E000095D484949221A1191211AA83C28368797E
:100E1000084100D52131128C41BA766272666E6A41
:100E2000DDCCE4C46CF574EDC4E4CCDCD4BA99C96F
:100E300089D96A01D6276EDA8B4152425242524218
:100E40005242524252425242524252425242524202
:100E500052425242524252E2E06305D70F2D1A8CA1
:100E600041925F1E1C441CD4EA0FD8263416B441AC
:100E70004E8E4E8E4E8E4E8E4E8E4E8E4E8E4E8E92
:100E80004E8E4E8E4E8E4E8E4E8E4E8E4EEEE00F0F
:100E9000D92C75D6BB414E859C0A3915722AE4546B
:100EA000C8A9905321A7424E859C0A3915722AE49D
:100EB00054C8A9905371F0F740F24002DA28321674
:100EC000A4A1BA1E421E421E421E421E421EE2C083
:100ED000EAE0487446564656465646564674E6E09C
:100EE000E8C00400DB21321AB4419C9F1F1CC41CC3
:100EF0001C88904ED04AD04AD04AD04A904E1C1CF2
:100F0000881C1CC408DC162F1A94415A5F1F981CB9
:100F10005C88D6F2F4E060E2C00400DD1F2F168C7E
:100F2000E7EC80868A44725A7A5AEC40EC405AF1D7
:100F3000B084E40415CD01D91500DE2E331AB44176
:100F4000CC4AE8604686884464704244544262B4A5
:100F500042F83185308530C56889A884C8E0840CA2
:100F60001189D0C18C981500DF1E2E168CE5A0E2E9
:100F7000E0409294A79512073607544342533263D8
:100F8000227312839502E0198C156C87EC2048AD12
:100F9000E4D48D85C8948898C8D0CC0149C900E1B3
:100FA0001B0C167471E8E6206652C2E680624C6241
:100FB000AC907713622207433600E2138A196CE182
:100FC00040E2A08CD901C54119B3831700E30B8916
:100FD0001964E1819DFE1D00E41DCDD57BE720EA6B
:100FE000204A484A484A484A484A484A484A48954E
:100FF000C8C1979402E5178C157489EC2066684483
:101000004C42F0E05BD1A99103A91A00E6269215A3
:10101000A4414CAC4A6A6248686646666A4464EE1B
:1010200060F2207242626E44646A466691D0C49453
:10103000D400E7158A1564E320E2A04C505195A135
:1010400020D941C5410400E8148A1564418C5591AA
:10105000CDC904C5C88D5115199900E917EA156461
:101060004591158D18AB229B93098A911BA32A32B7
:101070003201EA1A8A19644168426644644662A8E9
:10108000CA6862469B11A1092909A901EB1D8A15AD
:101090006CE520E4204448444844484448444844DB
:1010A000484448444862A84A00EC168E158441B46E
:1010B000F0EC40E8626482C48486911029A702EDB6
:1010C0000D89196C418A57070FA27825EE168C15E9
:1010D00074C7E860646862AC90C3B289A19183214F
:1010E0001B00EF0B89196CE18115FF9500F0182B9F
:1010F0007A7341A2E660626842AC8E6746130713BA
:10110000123592BA04F1168B156489EA206468429C
:101110008C52533189A19183281A00F20C8C1164EE
:10112000E1832951FD2B00F31E2B725B418EAE6AC9
:10113000424A646646918CD0C4948458DDE0A0E0B5
:10114000A058191D00F4254E76834DF220E8A064C6
:1011500044646246A648884888488848A84666622B
:101160004464E4A0E82052586700F5168B115C41F6
:10117000AE6A6266C554DDE05CD5C4CC8AA93A018A
:10118000F61ECAD96B414A424A424A424A424A4240
:101190004A424A424A424A424AE2E0C05001F70DFE
:1011A00089196C418A57071407717AF81D901594B4
:1011B000414A8A4A8A4A8A4A8A4A8A4A8A4A8A4AD8
:1011C0008A4A8A4AEAE00303F922D1D59B414A853B
:1011D000940A2915522AA45448A9905221A5424A9A
:1011E00085948A830FEC01E40104FA1A8D157C8141
:1011F0009256ED81D0C18CD8889C889C88D8C8C173
:10120000CC810800FB198E15844194D3039A831274
:10121000B2093A093A09B2898392031A01FC148B84
:10122000156C4152CB03918309B13A660716072228
:1012300000FD158B156CC5E84062687252E8A5A0E8
:10124000D1C8818C0D00FE208F158C41C846E4600A
:101250004264684262AC42F0218520C558C9D084FE
:10126000C8C184900D00FF198B156CE540E2C08C5D
:101270008EAE4CE260E4406646644862AA4C0000D0
:10128000000004FFFF000000201E11241FBECFEF4E
:10129000D8E0DEBFCDBF12E0A0E0B1E0E4EBF7E4C0
:1012A00002C005900D92A232B107D9F724E0A2E264
:1012B000B2E001C01D92AB3BB207E1F719E0C5E413
:1012C000D9E004C02197FE010E94D820C434D10780
:1012D000C9F70E94DC1A0C94D8230C9400006623F2
:1012E00029F06A3019F0862F90E008958FEF9FEF74
:1012F00008950F93DC01DF963C91DF97431BD59651
:10130000ED91FC91D69709950F910895CF93DF93B6
:10131000FC01A081B18193AD892F880F880F880FC0
:1013200086AF50968C915097803208F08FE1880FED
:10133000880F880F85AF24AD822F880F880F880F04
:1013400087AF51963C915197422F50E0490F511D64
:10135000632F70E06417750714F4932F921BEF014D
:10136000C05CDF4F8883219628E0929F800D112476
:101370008883219680EF888354968D919C91559710
:10138000813F910508F48883ED5BFF4F56968C9161
:101390008083DF91CF910895EF92FF920F931F9377
:1013A000CF93DF93DC01942F9770E1E0F0E0092EFA
:1013B00001C0EE0F0A94EAF71E2FED01C658DF4F69
:1013C0008881823028F47E2F813019F410E001C02A
:1013D00070E050E0487FD996ED90FC90DA97ED915F
:1013E000FC9111978089849FF001859FF00D112455
:1013F000E60FF11DEE0DFF1D01110CC02E0F8081B7
:10140000872B812781932E13FACF1DC0770F110FE1
:101410002223C9F03081372B312730839F5F9770AB
:1014200021509111F3CFDD968C91DD97E80FF11DDE
:101430008881823020F4813021F011E002C011E077
:10144000E7CF71E0E5CFDF91CF911F910F91FF9032
:10145000EF9008950F93FC01EA5BFF4F30813196C6
:101460005081451728F4301730F0041720F010C0D1
:101470003017D8F30DC0FC01EC5BFF4F3081319683
:101480008081681738F4321740F081E0261730F079
:1014900080E004C03217C8F3FBCF81E00F910895BC
:1014A0002F923F924F925F926F927F928F929F9274
:1014B000AF92BF92CF92DF92EF92FF920F931F9362
:1014C000CF93DF93EC014C0184E4880E911CF4016E
:1014D00010822DAC5E01F5E4AF0EB11CF501208247
:1014E000359730806E01F6E4CF0ED11CF6013082C4
:1014F000359740807E01F7E4EF0EF11CF701408242
:101500003496108132976080319670803297508087
:10151000012F262D472D652DCE010E942A0ACC5879
:10152000DF4F811102C0188212C081E088835520EC
:1015300011F0F4015082621410F4F5016082371446
:1015400010F4F6017082141510F4F7011083DF9186
:10155000CF911F910F91FF90EF90DF90CF90BF90B0
:10156000AF909F908F907F906F905F904F903F9043
:101570002F9008950F93302FFC01EC58FF4F5081AE
:10158000552309F461C0222309F45EC0223048F0DB
:10159000023019F46F5F621B04C0033011F44F5F17
:1015A000421B032F0170FC0130FD24C0EA5BFF4F9A
:1015B0003081431708F448C031963081431708F052
:1015C00043C03297308131975081260F261730F46F
:1015D000631718F42FEF230F03C0652F6317A0F5CF
:1015E000521790F5651708F4652F321708F4232F6A
:1015F000261B21C0EC5BFF4F3081631728F1319629
:101600003081631708F53296308131975081240F6D
:10161000241730F4431718F42FEF230F03C0452F7E
:10162000431790F4521780F4451708F4452F3217EA
:1016300008F4232F241BDC01D796ED91FC91D89759
:101640000480F581E02D09950F91089580E00895BB
:10165000213039F020F0223031F4861B0895860FB6
:101660000895841B0895840F0895213039F020F0E7
:10167000223031F4841B0895840F0895860F089555
:10168000861B08955F926F927F928F929F92AF9286
:10169000BF92CF92DF92EF92FF920F931F93CF935F
:1016A000DF935C01F62E642EEC01C05BDF4F1C81E2
:1016B000DD804C018AE7880E911CEE80E11ACE2C69
:1016C000FE1408F4CF2C5B800C85202F4D2D612F4C
:1016D0008A810E94280B782E202F4D2D612F852D79
:1016E0000E94350B482F662011F09A8504C0998519
:1016F000911108C09B85F40190832C2D672DC501A5
:101700000E94BA0AFE1420F0FE18D39410E0D5CF40
:101710001F0D1C83DD82DF91CF911F910F91FF90F0
:10172000EF90DF90CF90BF90AF909F908F907F9081
:101730006F905F900895DC0118964C911897ED9189
:10174000FC911197249130E0042E02C03595279525
:101750000A94E2F7862F840F883010F4E22F0EC02F
:1017600031961196FC93EE939491E92F98E0941B97
:1017700001C0EE0F9A95EAF7E22B885018968C93E9
:1017800081E090E001C0880F6A95EAF781508E23CE
:101790000895BF92CF92DF92EF92FF920F931F9323
:1017A000CF93DF9300D000D01F92CDB7DEB78C016E
:1017B000DC01DB96BC90DB97DC96DC90DC97ED914E
:1017C000FC91C188E12CF12CD801ED91FC9111978D
:1017D0008089D9964D915C91DA971C829D2D9E0D42
:1017E0009D838B83B8E08B9FC00111248E9D900157
:1017F0008F9D300D9E9D300D1124CA01820F931FC5
:101800009A838983D8011496ED91FC9115979E01D6
:101810002F5F3F4F41E06FE0C801099581E08E0DD9
:101820008B1538F4BFEFEB1AFB0A8D2D8E0D8C153E
:1018300058F20F900F900F900F900F90DF91CF9173
:101840001F910F91FF90EF90DF90CF90BF90089580
:10185000CF92DF92EF92FF920F931F93CF93DF937C
:101860006C01EB017B01E40EF51E00E010E0CE15EB
:10187000DF0561F06991D601ED91FC910190F08155
:10188000E02DC6010995080F191FF1CFC801DF919E
:10189000CF911F910F91FF90EF90DF90CF9008951F
:1018A000089580E090E00895FC01A081B1815096F8
:1018B0009C9143AD949FA001112483E0440F551FD8
:1018C0008A95E1F760E070E081AD92AD0C94F22072
:1018D000CF93DF93EC01962F683109F44AC060F48E
:1018E000B901943179F0973109F0BAC050E081E93B
:1018F00093E00E943E143BC0693109F45DC0603240
:10190000B1F1AEC0E881F981A585B0E020EA36E802
:1019100041E050E00E94CD206C877D878E879F87B5
:1019200010927E0210927D0210927A0210927B0237
:101930001092800281E0809382021092810261E025
:1019400082E10E94B51361E083E10E94B5138091AA
:10195000B9008E7F8093B9008091B9008D7F80930C
:10196000B90088E48093B80085E48093BC0081E0EE
:1019700078C02C853D854E855F8560E074E284EFFC
:1019800090E00E94AB20DA01C9014097A109B1099A
:10199000B695A795979587958093B8008E8990E026
:1019A0009595879591E090937C02809346021092E2
:1019B0007A0210927B02DBCF90917B0280914602EB
:1019C000913208F046C0209180022111FCCF22E024
:1019D0002093800221E0209382022FEF20937F0248
:1019E0001092A4029093A302AAE5B2E043E852E069
:1019F000FA012E2F241B291718F42D912193F9CFCA
:101A00001092A5029091A502880F892B8093A502C0
:101A100080918102813061F4109281028091A5024F
:101A20008093BB008091BC0083FDF8CF85EC01C0A2
:101A300085EE8093BC00809180028230E1F380913A
:101A40007F028F3F31F080917F02803211F08091D0
:101A50007F0210927A0210927B0210927C0287CF52
:101A600080E0DF91CF91089583E00E948C1301976D
:101A700031F482E00E948C13019761F405C082E08A
:101A80000E948C13892B31F4809147029091480277
:101A9000019605C08091470290914802019790936A
:101AA00048028093470208951F93CF93DF93EC0180
:101AB000962F642F9C3270F49A3208F058C09832F6
:101AC00089F0993209F03EC070E080E090E00E9419
:101AD000A1154DC09D32B1F0A8F184EB890F823081
:101AE00000F130C06F9610E089918F3F39F01031CE
:101AF00010F461E001C062E00E9440151F5F1631E2
:101B000099F735C0433018F082E090E002C085E0DC
:101B100090E0880F991F880F991F05970197F1F79B
:101B200026C09F73C90FD11D411107C061E08F8D81
:101B30000E94401560E08F8D10C062E08F8D0E9482
:101B4000401515C09034A8F09F73FE01E90FF11DF8
:101B5000878D8F3F61F0903118F40E94B51307C054
:101B60000E948C1321E0892B09F420E02A8F81E068
:101B700001C080E0DF91CF911F910895CF92DF9255
:101B8000EF92FF920F931F93CF93DF93CDB7DEB702
:101B9000A1970FB6F894DEBF0FBECDBF82E00E94C2
:101BA0008C13019731F483E00E948C13892B61F42C
:101BB00005C083E00E948C13019731F480914702A5
:101BC00090914802019605C0809147029091480289
:101BD00001979093480280934702209147023091E9
:101BE000480240E050E019A28E010F5D1F4F8AE0CD
:101BF000C82ED12CE12CF12CCA01B901A701960104
:101C00000E94AB20605DF80162938F0121153105C0
:101C10004105510589F7CF010E94561987EB91E0E4
:101C20000E945619A1960FB6F894DEBF0FBECDBF25
:101C3000DF91CF911F910F91FF90EF90DF90CF90A8
:101C4000089581E090E09093F3028093F2022FB721
:101C5000F8948091490290914A02A0914B02B09170
:101C60004C022FBF80934D0290934E02A0934F02DF
:101C7000B09350026091040170910501072E000C91
:101C8000880B990B0E94F61F9B01AC010E94A112C8
:101C90000C940A1ADC011696ED91FC91179720E03E
:101CA00030E040E069E10994DC011696ED91FC9189
:101CB000179720E030E040E068E109949A01DC01E8
:101CC0001696ED91FC911797462F67E10994EF92D4
:101CD000FF920F931F93CF93DF931F92CDB7DEB781
:101CE0007C018B01D8016C916731E1F078F46531AA
:101CF000A0F1F80141814983D7011696ED91FC913D
:101D0000179720E030E0C701099524C06A31A8F098
:101D10006E3F19F5F8014181498369E2C7010E94CC
:101D2000A11718C0F80181818983AE014F5F5F4F11
:101D300061E0C7010E945E0E0DC00F5F1F4FD7010B
:101D40001696ED91FC91179720E030E040E0C70136
:101D50000995C8CF0E5F1F4FC5CF0F90DF91CF9170
:101D60001F910F91FF90EF900895462FDC0116967A
:101D7000ED91FC91179720E030E066E10994462F41
:101D8000DC011696ED91FC91179720E030E065E1BB
:101D90000994DC011896ED91FC91199720E030E050
:101DA00040E069E10994DC011896ED91FC911997E6
:101DB00020E030E040E068E10994CF93DF931F9288
:101DC000CDB7DEB76983BE016F5F7F4F0E942B13D3
:101DD0000F90DF91CF910895FC01E60FF11D8491E2
:101DE00090E0982F88273196E4918E0F911D0895E9
:101DF0004F925F926F927F928F929F92AF92BF921B
:101E0000CF92DF92EF92FF920F931F93CF93DF93C6
:101E10001F92CDB7DEB72C01062F142F7901FC01DC
:101E2000E45AFF4F80818130C9F070F0823001F1B7
:101E3000833039F5F201E25BFF4F0190F081E02D34
:101E4000C2010995080F1DC0F201E25BFF4F01902E
:101E5000F081E02DC2010995180F13C0F201E25B79
:101E6000FF4F0190F081E02DC2010995081B09C0C8
:101E7000F201E25BFF4F0190F081E02DC201099574
:101E8000181BF201EE5AFF4F0083319610833797EB
:101E90008081918147962FEFE216F10409F050F509
:101EA000E1E6EE16F10420F0F201E059FF4F07C021
:101EB000F1E4EF16F10438F0F201E259FF4F20810E
:101EC0003181820F931F9C012F5F3F4FF901449195
:101ED000442309F40EC1FC01449150E04E155F0506
:101EE00021F48C010E5F1F4F34C0F9012491820F41
:101EF000911DE9CFF201EE58FF4FC080D180C80E8E
:101F0000D91E860160E0C6010E94EC0E080F191F61
:101F100062E0C6010E94EC0EF4E0CF0ED11C8E15DB
:101F20009F0580F3F801849190E0982F88273196DF
:101F3000E4918E2B009709F4DCC08E159F0519F4EF
:101F40000D5F1F4F06C0F8013296E4910E0F111D70
:101F5000E9CF0115110509F4CCC07201F0E5EF0ECF
:101F6000F11CF70111830083108671966081C7010F
:101F70000E949B0BF701868372966081C7010E94C5
:101F80009B0BB82EF70187836201FAE7CF0ED11CB5
:101F9000F6019081F701928781E0911180E0F701CD
:101FA0008387F201ED59FF4F1081612FC7010E9415
:101FB0009B0B9FEF910F01E010E0980101C0220FF1
:101FC0009A95EAF7782E721AF201EC59FF4FA08029
:101FD0006A2DC7010E949B0BAA94480101C0880C7E
:101FE000AA94EAF76B2C680EF201EB59FF4FA08020
:101FF0006A2DC7010E949B0BAA9401C0000FAA94EE
:10200000EAF7A82EA01AF701068110160CF072C08C
:1020100094858618292F482D672D828199830E94E7
:10202000280B182FF70182839981292F482D672DBE
:1020300083810E94350B482FF7018383998191306A
:1020400091F060F09230A1F09330E9F4212F2B0D44
:10205000801B01E0040F41E0480F17C0212F200F23
:10206000082F0B0D12C09B1921E0210F080F09C08A
:1020700081E0982F901B21E0210F8B1901E0040FC4
:10208000480F190F02C0082F212F612FC2010E9493
:102090002A0A882379F1F701148215828201015AF4
:1020A0001F4F4201F0E68F0E911CF8016081C701BD
:1020B0000E949B0B682EF4016081C7010E949B0B5C
:1020C000782E40E0662DC2010E94420B41E0672D50
:1020D000C2010E94420B61E0C7010E949B0B81116B
:1020E000F0CFF70185818B1504F38285F60180839B
:1020F00001C0A12C8A2D0F90DF91CF911F910F91DC
:10210000FF90EF90DF90CF90BF90AF909F908F9017
:102110007F906F905F904F9008950F931F93CF9390
:10212000DF93EC018C010C5F1F4FFC01E058FF4F67
:102130000190F081E02DC80109958E3F2FEF9207A5
:1021400080F4FE01ED57FF4FCE57DF4F9C014081D9
:102150006881C8010E94F80E288190E0820F911DCD
:10216000888381E090E0DF91CF911F910F910895D6
:10217000CF93DF93EC016CAFEFA9F8AD0190F08144
:10218000E02D0995EFA9F8AD0280F381E02DCE0195
:10219000DF91CF9109940F931F93CF93DF931F92F9
:1021A000CDB7DEB78C010E94C90BD801DC966C91CB
:1021B000DC97DB968C91DB97680FED91FC91119782
:1021C0008189681760F01496ED91FC91159720E0D5
:1021D00030E040E060E1C801099580E00FC0F801FF
:1021E000E558FF4F8081882329F0C80169830E9448
:1021F000540C6981C8010E94B81081E00F90DF91F2
:10220000CF911F910F910895CF93DF93EC01FC01C3
:10221000E558FF4F8081882319F0CE010E94540CAD
:1022200060E0CE01DF91CF910C94B8100F931F9313
:10223000CF93DF93EC018C01085F1F4F88812296BA
:1022400060E00E94B513C017D107C1F7DF91CF91AD
:102250001F910F9108951092F3021092F20260E024
:1022600080E00E94C01A809106019091070182309F
:102270009105B1F04CF4019711F58DE993E00E94BE
:10228000161161E086E019C08330910581F0049752
:10229000B1F48DE993E00E94161161E08FE00DC06A
:1022A0008DE993E00E94161161E081E106C08DE99D
:1022B00093E00E94161161E080E10E94B5136091E5
:1022C000B4038091B3030E94C01A0C940A1A80913F
:1022D000080190910901892B61F460E080E00E947F
:1022E000C01A8DE993E00E94161160E085E00E941B
:1022F000B51380910801909109010197C1F48DE90E
:1023000093E00E94161161E085E00E94B5130E94DF
:102310002B116091040170910501072E000C880BB0
:10232000990B0E94F61F9B01AC010E94A1120C9414
:102330000A1ACF92DF92EF92FF920F931F93CF93DF
:10234000DF936C017A018B01C0E0D0E0CE15DF0590
:1023500089F0D8016D918D01D601ED91FC9101902C
:10236000F081E02DC6010995892B11F47E0102C090
:102370002196ECCFC701DF91CF911F910F91FF9074
:10238000EF90DF90CF900895FC01538D448D252F61
:1023900030E0842F90E0821B930B541710F0CF96FF
:1023A000089501970895FC01918D828D981761F031
:1023B000828DDF01A80FB11D5D968C91928D9F5F7C
:1023C0009F73928F90E008958FEF9FEF0895FC0127
:1023D000918D828D981731F0828DE80FF11D858DDA
:1023E00090E008958FEF9FEF0895FC01918D228D6D
:1023F000892F90E0805C9F4F821B91098F739927F2
:10240000089584EF92E00E94F51121E0892B09F4F0
:1024100020E0822F0895FC01848DDF01A80FB11DFB
:10242000A35ABF4F2C91848D90E001968F7399270A
:10243000848FA689B7892C93A089B1898C918064F7
:102440008C93938D848D981306C00288F389E02DB8
:1024500080818F7D80830895EF92FF920F931F9369
:10246000CF93DF93EC0181E0888F9B8D8C8D981347
:1024700005C0E889F989808185FD24C0F62E0B8D81
:1024800010E00F5F1F4F0F731127E02E8C8DE812A5
:102490000CC00FB607FCFACFE889F989808185FF67
:1024A000F5CFCE010E940B12F1CF8B8DFE01E80F0C
:1024B000F11DE35AFF4FF0820B8FEA89FB8980817F
:1024C000806207C0EE89FF896083E889F98980818D
:1024D0008064808381E090E0DF91CF911F910F9124
:1024E000FF90EF900895CF93DF93EC01888D8823C0
:1024F000C9F0EA89FB89808185FD05C0A889B98971
:102500008C9186FD0FC00FB607FCF5CF808185FF4B
:10251000F2CFA889B9898C9185FFEDCFCE010E94B9
:102520000B12E7CFDF91CF91089580E090E0892BE7
:1025300029F00E94011281110C94000008950E945C
:10254000ED208F929F92AF92BF92CF92DF92EF9247
:10255000FF92CF934B015C0169017A0120E030E0EA
:10256000A901C701B6010E94822018161CF4C12CD3
:10257000D12C760120E030E0A901C501B4010E9410
:10258000822018161CF4812C912C540120E030E09C
:102590004CEF51E4C501B4010E94511F9B01AC01F5
:1025A0000E94521F20E030E04FE753E40E94521F88
:1025B0004B015C0120E030E0A9010E94822020E074
:1025C00030E040E05FE387FD05C0C501B4010E9433
:1025D000521F04C0C501B4010E94511F0E94BE1FBA
:1025E000C62F6093B30320E030E04CEF51E4C70105
:1025F000B6010E94511F9B01AC010E94521F20E0B6
:1026000030E04FE753E40E94521F6B017C0120E051
:1026100030E0A9010E94822020E030E040E05FE34A
:1026200087FD05C0C701B6010E94521F04C0C70143
:10263000B6010E94511F0E94BE1F6093B4038C2FED
:10264000CF91FF90EF90DF90CF90BF90AF909F9091
:102650008F900C94C01A9B01DC011896ED91FC91AF
:10266000199741E067E109941F920F920FB60F92FC
:1026700011242F933F934F935F936F937F938F9387
:102680009F93AF93BF93EF93FF9384EF92E00E94E9
:102690000B12FF91EF91BF91AF919F918F917F911D
:1026A0006F915F914F913F912F910F900FBE0F90BF
:1026B0001F9018951F920F920FB60F9211242F930F
:1026C0008F939F93EF93FF93E0910403F0910503A1
:1026D0008081E0910A03F0910B0382FD12C090818A
:1026E00080910D038F5F8F7320910E03821751F03D
:1026F000E0910D03F0E0EC50FD4F958F80930D03BA
:1027000001C08081FF91EF919F918F912F910F9048
:102710000FBE0F901F901895CF93DF93282F30E0B6
:10272000F901E458FF4F8491F901E656FF4FD49127
:10273000F901E255FF4FC491CC2391F081110E9421
:102740001715EC2FF0E0EE0FFF1FEE58FF4FA5918D
:10275000B491EC91ED2381E090E021F480E002C09F
:1027600080E090E0DF91CF9108951F93CF93DF93A6
:10277000282F30E0F901E458FF4F8491F901E65623
:10278000FF4FD491F901E255FF4FC491CC23C9F01A
:10279000162F81110E941715EC2FF0E0EE0FFF1F8E
:1027A000E859FF4FA591B4918FB7F894111105C066
:1027B0009C91ED2FE095E92302C0EC91ED2BEC9379
:1027C0008FBFDF91CF911F910895089585ED80937C
:1027D000BC008091BC0084FDFCCF10928002089563
:1027E0004091C802262F30E0240F311D21323105DF
:1027F000DCF4209180022430C9F4FC0180E090E0F8
:10280000861758F43091C8022191DC01AA55BD4FBA
:10281000A30FB11D2C930196F3CF8091C802680FCE
:102820006093C80280E0089581E0089582E00895F1
:10283000089581E090E030917E0220917D02321770
:1028400010F480E090E09195819591090895809130
:102850007E0290917D02891730F48F5F80937E0213
:1028600080E090E008958FEF9FEF089580917D02C2
:1028700090E020917E02821B91090895CF92DF9211
:10288000EF92FF920F931F93CF93DF937C01262F3C
:10289000972F8A0180917C02882391F0C62FD72F31
:1028A0006E01C40ED51ECC15DD0571F06991D701FE
:1028B000ED91FC910190F081E02DC7010995F3CFD6
:1028C000642F822F0E94F013C801DF91CF911F91D6
:1028D0000F91FF90EF90DF90CF900895CF93DF930B
:1028E0001F92CDB7DEB7698320917C022223D1F0FD
:1028F00020917B02203240F021E030E0FC01338364
:10290000228380E090E015C080917A02E82FF0E009
:10291000E65AFD4F998190838F5F80937A0280936E
:102920007B0205C061E0CE0101960E94F01381E0B8
:1029300090E00F90DF91CF91089580E00895EF929D
:10294000FF921F93CF93DF93EC01162F7A010E9421
:10295000D30E60E4CE010E94DD0EE885F985970173
:10296000412F67E1CE010995CE01DF91CF911F91F3
:10297000FF90EF900C94C90EEF92FF921F93CF93AC
:10298000DF9300D0CDB7DEB77C01142F673128F478
:10299000653140F4643149F141C0673191F06A31E9
:1029A00070F03CC00E94D30E60E0C7010E94DD0EB3
:1029B000612FC7010E94DD0EC7010E94C90E81E090
:1029C0002EC0A901193160F068E1C70129833A835B
:1029D0000E949F14185129813A81285E3F4FF1CF00
:1029E000612FC7010E949F14EACFDC0156968C919B
:1029F00056978F3F19F488E756968C93D70118960F
:102A0000ED91FC911997412F64E1C7010F900F9050
:102A1000DF91CF911F91FF90EF90099480E00F908C
:102A20000F90DF91CF911F91FF90EF900895833029
:102A300081F028F4813099F08230A1F00895873038
:102A4000A9F08830B9F08430D1F4809180008F7D76
:102A500003C0809180008F7780938000089584B5B3
:102A60008F7702C084B58F7D84BD08958091B000BA
:102A70008F7703C08091B0008F7D8093B000089560
:102A8000CF93DF9390E0FC01E656FF4F2491FC01C9
:102A9000E255FF4F8491882361F190E0880F991FE0
:102AA000FC01E057FF4FC591D491FC01E859FF4F5D
:102AB000A591B491611109C09FB7F89488812095C0
:102AC00082238883EC912E230BC0623061F49FB780
:102AD000F8943881822F809583238883EC912E2B64
:102AE0002C939FBF06C08FB7F894E8812E2B2883C4
:102AF0008FBFDF91CF9108953FB7F8948091EE0298
:102B00009091EF02A091F002B091F10226B5A89B3E
:102B100005C02F3F19F00196A11DB11D3FBFBA2F6F
:102B2000A92F982F8827820F911DA11DB11DBC01CF
:102B3000CD0142E0660F771F881F991F4A95D1F794
:102B400008958F929F92AF92BF92CF92DF92EF92B1
:102B5000FF926B017C010E947C154B015C01C1144A
:102B6000D104E104F104F1F00E947C15DC01CB01F9
:102B700088199909AA09BB09883E9340A105B105A6
:102B800070F321E0C21AD108E108F10888EE880E3E
:102B900083E0981EA11CB11CC114D104E104F1040E
:102BA00019F7DDCFFF90EF90DF90CF90BF90AF90FF
:102BB0009F908F9008951F920F920FB60F9211243D
:102BC0002F933F938F939F93AF93BF93809149022D
:102BD00090914A02A0914B02B0914C023091ED02CB
:102BE00023E0230F2D3720F40196A11DB11D05C050
:102BF00026E8230F0296A11DB11D2093ED028093BC
:102C0000490290934A02A0934B02B0934C028091E8
:102C1000EE029091EF02A091F002B091F1020196C4
:102C2000A11DB11D8093EE029093EF02A093F002DC
:102C3000B093F102BF91AF919F918F913F912F91EE
:102C40000F900FBE0F901F9018951F920F920FB606
:102C50000F9211242F933F934F935F936F937F9322
:102C60008F939F93AF93BF93EF93FF93E0910201F4
:102C7000F09103010995FF91EF91BF91AF919F9161
:102C80008F917F916F915F914F913F912F910F9015
:102C90000FBE0F901F9018951F920F920FB60F92B4
:102CA00011242F933F934F935F936F937F938F9351
:102CB0009F93AF93BF93EF93FF93E0910001F09147
:102CC00001010995FF91EF91BF91AF919F918F9174
:102CD0007F916F915F914F913F912F910F900FBE18
:102CE0000F901F9018951F920F920FB60F921124FC
:102CF0002F933F934F935F936F937F938F939F9304
:102D0000AF93BF93EF93FF938091B900887F803694
:102D100009F49CC068F5883209F45BC090F48031F6
:102D200009F454C038F4882309F4F6C0883009F453
:102D30004DC0F6C0883109F44CC0803209F45DC042
:102D4000EFC0803409F468C048F4803309F455C0FA
:102D5000883309F0E5C080937F02D8C0803509F43C
:102D60004FC0883509F45DC0883409F0D9C0D6C099
:102D7000883909F4C7C0A8F4883709F467C038F463
:102D8000883609F463C0803709F460C0C9C0883848
:102D900009F4B8C0803909F45FC0803809F0C0C0B8
:102DA0005BC0803B09F486C038F4803A09F466C001
:102DB000883A09F47FC0B4C0803C09F4A7C0883CBD
:102DC00009F4A4C0883B09F48AC0AAC08091A50276
:102DD00010C09091A4028091A302981770F5E09121
:102DE000A40281E08E0F8093A402F0E0ED57FD4F26
:102DF00080818093BB0085EC86C080937F028EC06B
:102E0000E091A40281E08E0F8093A4028091BB0028
:102E1000F0E0ED57FD4F80839091A4028091A302D2
:102E20006EC0E091A40281E08E0F8093A402809195
:102E3000BB00F0E0ED57FD4F80838091820281114D
:102E40006DC081E08093810284EA61C083E0809359
:102E500080021092EC02CFCF8091EC02803208F019
:102E600051C0E091EC0281E08E0F8093EC028091E2
:102E7000BB00F0E0E453FD4F8083BDCF85EC809331
:102E8000BC00109280028091EC02803230F4E0911C
:102E9000EC02F0E0E453FD4F10826091EC0270E030
:102EA000E091CA02F091CB028CEC92E0099510926D
:102EB000EC0236C084E0809380021092C902109226
:102EC000C802E091C602F091C70209958091C8023C
:102ED000811105C081E08093C8021092A602E091A2
:102EE000C90281E08E0F8093C902F0E0EA55FD4FE0
:102EF00080818093BB009091C9028091C80298178D
:102F000008F479CF85E88093BC000AC085EC8093F3
:102F1000BC001092800204C010927F020E94E6134F
:102F2000FF91EF91BF91AF919F918F917F916F91A1
:102F30005F914F913F912F910F900FBE0F901F9077
:102F40001895DC011A96ED91FC911B9720E030E07A
:102F50000994EF92FF920F931F93CF93DF93EC01AD
:102F6000142F79016D30A9F118F46B3039F15FC07D
:102F70006E3009F441C06F3009F059C00E94540E00
:102F8000F70183810C89F8E08F9F000D112460E424
:102F9000CE010E94BF0E602F62956F706061CE01FE
:102FA0000E94BF0E602F6F70CE010E94B50EF70118
:102FB0006481606BCE010E94B50E29C0411103C02F
:102FC00063E271E002C06EE171E0CE010E94670E23
:102FD00071C0411108C067E171E00E94670EE8818D
:102FE000F981828907C060E171E00E94670EE88183
:102FF000F98183898C8B5EC00E94540E61E8CE01FA
:103000000E94BF0E612FCE010E94B50E0CC0F701C9
:10301000408151816281660F660F660FCE010E946A
:103020005E0E1150A1F7CE010E944A0E43C06930D6
:1030300031F48DE591E09983888382E0DBCF6A30BB
:10304000B9F5EA85FB8520E030E040E068E2CE019A
:103050000995EE81FF8120E030E040E064E1CE019F
:10306000099541E06BE4CE010E94A117E881F98146
:10307000448169E2CE010E94A11740E06BE4CE01D9
:103080000E94A117E881F981448169E2CE010E9482
:10309000A11741E06BE4CE010E94A117E881F981FC
:1030A000458169E2CE010E94A11768E271E08DCFEF
:1030B00080E001C081E0DF91CF911F910F91FF90DF
:1030C000EF900895FF920F931F93CF93DF93C82F34
:1030D000D62F1092D4038A01F12CF80161918F014F
:1030E000E091BD03F091BE038BEB93E009958F3F18
:1030F000FFEF9F07E9F08E3F2FEF920771F39C01DE
:103100004D2F6C2F8BEB93E00E94F80E209117044B
:10311000213049F030F0223041F0233039F4D81B0F
:1031200005C0C80F03C0D80F01C0C81BF80ED5CF0B
:103130008F2DDF91CF911F910F91FF900895CF9325
:10314000DF9320910704309108042817390709F408
:10315000AAC0EC019093080480930704FC018491B9
:10316000809318043196E491E0931904FE0132969D
:10317000E491E0931A04FE013396E491E0931B047A
:10318000FE013496E491E0931C04FE013596E4912F
:10319000E0931D04FE013696E491E0931E04FE01C7
:1031A0003796E491E0931F04FE013896E491E09392
:1031B0002004FE013996E491E0932104FE013A9641
:1031C000E491E0932204FE013B96E491E093230412
:1031D000FE013C96E491E0932404FE013D96E491C7
:1031E000E0932504FE013E96E491E0932604FE015F
:1031F0003F96E491E0932704FE017096E491E093FA
:10320000280461E1CE010E94EC0E90932A04809381
:10321000290463E1CE010E94EC0E90932C0480936C
:103220002B0465E1CE010E94EC0E90932E04809356
:103230002D048091070490910804892BA1F18091BD
:1032400025048093310440912604409332049091E8
:103250003004992341F1913069F490912704891742
:1032600014F490933104809128048417E4F480933B
:10327000320419C03091220420912404082E000C3D
:10328000990B622F022E000C770B630F711D37FD17
:103290007A95861797071CF4320F30933104241760
:1032A00014F420933204DF91CF910895009769F0D0
:1032B000FC0101900020E9F73197AF01481B590B41
:1032C000BC0184EF92E00C94991180E090E00895A5
:1032D0008091080190910901892B81F0809104016E
:1032E0009091050101979093050180930401E0916D
:1032F0000A01F0910B01309709F00994089580912B
:10330000080190910901892B91F08091040190911D
:10331000050197FF0CC0019690930501809304016D
:10332000E0910A01F0910B01309709F0099408959A
:103330009093090180930801E0910C01F0910D0137
:10334000309709F0099408952091080130910901FE
:10335000232B21F481E090E00C9498199C012150DA
:1033600031092430310558F4909307018093060108
:10337000E0910E01F0910F01309709F00994089542
:103380009091A603E92FF0E0E358FE4F208130E052
:1033900002C0359527958A95E2F72370291318C046
:1033A00081E08093A60381E090E09093B003809346
:1033B000AF039093B2038093B1030E947C15609396
:1033C000A7037093A8038093A9039093AA03089579
:1033D0002093A603223039F48091B1039091B20377
:1033E000880F991F09C02130A1F48091B1039091F9
:1033F000B203880F991F01969093B2038093B10393
:103400008091AF039091B00301969093B0038093A5
:10341000AF0308958F929F92AF92BF92CF92DF92A7
:10342000EF92FF920F931F93CF93DF93CDB7DEB749
:1034300064970FB6F894DEBF0FBECDBF8BEB93E061
:103440000E9404118E010F5F1F4F8FE6E82E89E066
:10345000F82E9AE0C92E92E0D92E5E018BE0A80EDC
:10346000B11C2FE0822E22E0922E8091F2029091E8
:10347000F302019701F582EC90E00E949F18809181
:1034800005018F93809104018F93DF92CF921F9358
:103490000F930E940021F092BE03E092BD03A801A9
:1034A00068E28EE10E9462180F900F900F900F90CB
:1034B0000F900F904CC080910801909109010197E5
:1034C000A1F582EC90E00E949F18809105018F93F6
:1034D000809104018F93DF92CF92BF92AF920E94AE
:1034E0000021809107018F93809106018F939F9215
:1034F0008F921F930F930E940021F092BE03E092DF
:10350000BD03A50164E18EE10E946218F092BE0342
:10351000E092BD03A80166E389E10E9462180FB63C
:10352000F894DEBF0FBECDBF12C082EC90E00E94C7
:103530009F1869E172E0C8010E94F920F092BE0371
:10354000E092BD03A8016EE184E10E9462188BEB5A
:1035500093E00E94CB10811188CF64960FB6F89447
:10356000DEBF0FBECDBFDF91CF911F910F91FF90B6
:10357000EF90DF90CF90BF90AF909F908F90089585
:10358000CF93DF93D82FC62F60E08091B5030E94C0
:10359000B513DEBD00000DB407FEFDCF8EB5CEBD68
:1035A00000000DB407FEFDCF8EB561E08091B5033C
:1035B000DF91CF910C94B513CF93DF93CDB7DEB7E6
:1035C000A4970FB6F894DEBF0FBECDBF789484B534
:1035D000826084BD84B5816084BD85B5826085BD0F
:1035E00085B5816085BD80916E00816080936E009D
:1035F000109281008091810082608093810080918F
:10360000810081608093810080918000816080933F
:1036100080008091B10084608093B1008091B000FF
:1036200081608093B00080917A00846080937A00FA
:1036300080917A00826080937A0080917A00816024
:1036400080937A0080917A00806880937A0010924B
:10365000C10081E29EE090930B0180930A0187E60E
:1036600091E190930D0180930C018BE291E1909395
:103670000F0180930E0160E082E00E94401560E03F
:1036800083E00E9440158EEB9DE0909301018093B2
:103690000001809169008C7F816080936900E89AC5
:1036A00084E39DE09093030180930201809169007F
:1036B000837F846080936900E99A62E084E00E94DD
:1036C0004015E0910403F091050382E08083E091CE
:1036D0000003F09101031082E0910203F0910303D3
:1036E00080E1808310920C03E0910803F0910903BC
:1036F00086E08083E0910603F0910703808180617A
:103700008083E0910603F0910703808188608083C5
:10371000E0910603F0910703808180688083E09147
:103720000603F091070380818F7D8083E091BF03C2
:10373000F091C00320E030E040E06AE08BEB93E0E2
:1037400009958BEB93E00E9404118BEB93E00E94B0
:10375000CB108111FACF60E08BEB93E00E94B810A0
:10376000E091BF03F091C00320E030E040E06BE067
:103770008BEB93E009958AEB91E00E9456191FB7F5
:10378000F89480915102811127C0E8EBF0E0849118
:10379000E4EAF0E09491E82FF0E0EE0FFF1FE0572D
:1037A000FF4FA591B491EC91E92321F461E08AE007
:1037B0000E94B51361E08AE00E9440158CB58061DB
:1037C0008CBD8CB580648CBD61E08DE00E9440159D
:1037D00061E08BE00E944015809151028F5F8093E1
:1037E00051021FBF61E08091B5030E94401561E066
:1037F0008091B5030E94B51361E08091B6030E94E9
:10380000401561E08091B6030E94B5136091B40346
:103810008091B3030E94C01A8091470290914802A0
:1038200090935302809352020E94671199249394BB
:1038300053ED252E51E0352E8E010F5F1F4F68018D
:1038400084E00E948C13892B09F091C068EC70E031
:1038500080E090E00E94A1158091080190910901FB
:10386000009729F481E090E00E949819ABC001977D
:1038700009F081C080914D0290914E02A0914F02BB
:10388000B0915002892B8A2B8B2B99F42FB7F89487
:103890008091490290914A02A0914B02B0914C0252
:1038A0002FBF8093560290935702A0935802B09373
:1038B000590268EC70E080E090E00E94A11587EC6E
:1038C00091E00E9456198091540290915502019600
:1038D00090935502809354024091470250914802C0
:1038E00020915202309153022417350770F48091D1
:1038F0004702909148029093530280935202809124
:10390000060190910701019614C040914702509121
:10391000480242175307F0F4809147029091480201
:103920009093530280935202809106019091070177
:10393000019790930701809306010E94A4191092A9
:1039400055021092540268EC70E080E090E00E9412
:10395000A11530C0069779F480E090E00E94981994
:1039600068EE73E080E090E00E94A11504C0109220
:1039700055021092540220914702309148028091E2
:103980005202909153028217930758F48091470294
:103990009091480290935302809352020E947F19A3
:1039A00011C020914702309148022817390750F47E
:1039B0000E946819809147029091480290935302A7
:1039C000809352028091A5030E948C135C012C010C
:1039D000990F660877088091AB039091AC03A09192
:1039E000AD03B091AE03481659066A067B0609F48A
:1039F00063C00E947C152091A7033091A8034091D9
:103A0000A9035091AA037B018C01E21AF30A040B6B
:103A1000150BE9A2FAA20BA31CA36093A703709352
:103A2000A8038093A9039093AA034092AB035092FA
:103A3000AC036092AD037092AE038A2D270138016A
:103A40000CEB401A01E0500A610871081AE74116B0
:103A500013E051066104710420F4AA20A1F082E071
:103A600012C049A15AA16BA17CA1465355406109DE
:103A70007109493753406105710540F4A11002C036
:103A800084E001C086E00E94C01916C09092A6038F
:103A900081E090E09093B0038093AF039093B203E2
:103AA0008093B1030E947C156093A7037093A803D1
:103AB0008093A9039093AA038091AF039091B003E0
:103AC0000E9709F08DC08091B1039091B2031092CE
:103AD000B2031092B1031092B0031092AF035C01D5
:103AE00030ECA32237E0B32226E0B694A7942A95BF
:103AF000E1F79C01209530952227307145E03695FD
:103B000027954A95E1F7182F1F73122B8827987075
:103B1000892F8695869586951F928F93BF92AF9237
:103B20001F921F933F922F92DF92CF920E9400210B
:103B3000C6010E9456190FB6F894DEBF0FBECDBF66
:103B4000103171F450E1A516B10409F049C080911B
:103B500004019091050197FF43C00E947F1940C066
:103B6000113171F480E1A816B104D1F580910401FE
:103B700090910501823A9F4F9CF10E94681930C0D4
:103B8000123039F410E1A116B10451F581E090E052
:103B900008C0153049F420E1A216B10409F582E00D
:103BA00090E00E94A4191CC0133039F430E1A31630
:103BB000B104B1F483E090E0F4CF113039F440E186
:103BC000A416B10469F484E090E0EBCF1D3041F419
:103BD00050E1A516B10421F480E090E00E9498190C
:103BE0008091F2029091F3020197E1F42FB7F894DB
:103BF0008091490290914A02A0914B02B0914C02EF
:103C00002FBF40914D0250914E0260914F02709132
:103C10005002841B950BA60BB70B893B9B40A1055B
:103C2000B10518F40E9495120BCE1092F302109277
:103C3000F20289EF91E00E9456190E940A1AF2CF0F
:103C4000CF93DF931092F7021092F60288EE93E082
:103C5000A0E0B0E08093F8029093F902A093FA02FA
:103C6000B093FB0225E831E03093F5022093F40293
:103C700025EC30E0309301032093000324EC30E086
:103C8000309303032093020320EC30E030930503CC
:103C90002093040321EC30E03093070320930603C4
:103CA00022EC30E0309309032093080326EC30E047
:103CB00030930B0320930A0310920D0310920E030E
:103CC00010920F031092100310929403109293031A
:103CD0008093950390939603A0939703B0939803D2
:103CE00087E991E090939203809391031092BA0335
:103CF0001092B9038FE699E09093380480933704CB
:103D00001092390410923A041092D40389EA91E097
:103D10009093B8038093B7031092BC031092BB0337
:103D20001092D0031092D3038FEF8093D10380932E
:103D3000D603EAEDF3E09FEF86E18E0FCFEF91938C
:103D40008E13FCCF89EA97E19093C0038093BF0361
:103D50008CEB94E19093C2038093C10388E69CE0CE
:103D60009093C4038093C30384E59DE09093C603BE
:103D70008093C50320E030E040E069E08BEB93E006
:103D80000E94A91710920804109207048CEC99E085
:103D90009093F1038093F0038BE394E09093F50309
:103DA0008093F403D1E0D093F6031092F7031092BE
:103DB000140410923404D0933504D093360481EB6C
:103DC00091E09093F3038093F2038BEB93E00E94D6
:103DD00086091092030410920504C0930404C09352
:103DE0000604E091F203F091F3030280F381E02DE9
:103DF0008BEB93E0099586E29BE090930A04809315
:103E0000090410921704C093E503C093E603C0931E
:103E1000E7031092B3031092B40389E08093B503D3
:103E200087E08093B603C8E0C093A50362E088E012
:103E30000E944015D093A60381E090E09093B003D8
:103E40008093AF039093B2038093B1030E947C15DB
:103E50006093A7037093A8038093A9039093AA0388
:103E6000E5E7F1E0ADE9B3E001900D92CA95E1F725
:103E700061E085E00E944015CDE9D3E0888122967B
:103E800061E00E94401583E0C53AD807B9F760E0C9
:103E900085E00E94B5138DE993E0DF91CF910C94FA
:103EA00016115058BB27AA270E94691F0C9448205E
:103EB0000E943A2038F00E94412020F039F49F3FC0
:103EC00019F426F40C9437200EF4E095E7FB0C94DB
:103ED0003120E92F0E94592058F3BA17620773075F
:103EE0008407950720F079F4A6F50C947B200EF456
:103EF000E0950B2EBA2FA02D0B01B90190010C01FA
:103F0000CA01A0011124FF27591B99F0593F50F411
:103F1000503E68F11A16F040A22F232F342F442769
:103F2000585FF3CF469537952795A795F040539561
:103F3000C9F77EF41F16BA0B620B730B840BBAF031
:103F40009150A1F0FF0FBB1F661F771F881FC2F79C
:103F50000EC0BA0F621F731F841F48F487957795B0
:103F60006795B795F7959E3F08F0B0CF9395880F6A
:103F700008F09927EE0F9795879508950E94C51F21
:103F80006894B1110C947C2008950E94612088F0FF
:103F90009F5798F0B92F9927B751B0F0E1F0660F0D
:103FA000771F881F991F1AF0BA95C9F714C0B1304E
:103FB00091F00E947B20B1E008950C947B20672F44
:103FC000782F8827B85F39F0B93FCCF3869577957D
:103FD0006795B395D9F73EF4909580957095619566
:103FE0007F4F8F4F9F4F0895E89409C097FB3EF491
:103FF00090958095709561957F4F8F4F9F4F992336
:10400000A9F0F92F96E9BB279395F69587957795B3
:104010006795B795F111F8CFFAF4BB0F11F460FF73
:104020001BC06F5F7F4F8F4F9F4F16C0882311F0CB
:1040300096E911C0772321F09EE8872F762F05C0DF
:10404000662371F096E8862F70E060E02AF09A957A
:10405000660F771F881FDAF7880F9695879597F96F
:10406000089597F99F6780E870E060E008959FEFFA
:1040700080EC089500240A941616170618060906FF
:10408000089500240A9412161306140605060895CE
:10409000092E0394000C11F4882352F0BB0F40F456
:1040A000BF2B11F460FF04C06F5F7F4F8F4F9F4F96
:1040B000089557FD9058440F551F59F05F3F71F018
:1040C0004795880F97FB991F61F09F3F79F087957F
:1040D0000895121613061406551FF2CF4695F1DF08
:1040E00008C0161617061806991FF1CF8695710598
:1040F000610508940895E894BB2766277727CB01CC
:1041000097F908950E94872008F48FEF0895990F7A
:104110000008550FAA0BE0E8FEEF16161706E80791
:10412000F907C0F012161306E407F50798F0621BB2
:10413000730B840B950B39F40A2661F0232B242B87
:10414000252B21F408950A2609F4A140A6958FEFA6
:10415000811D811D0895A1E21A2EAA1BBB1BFD0122
:104160000DC0AA1FBB1FEE1FFF1FA217B307E40756
:10417000F50720F0A21BB30BE40BF50B661F771FAE
:10418000881F991F1A9469F760957095809590958E
:104190009B01AC01BD01CF0108950E94DE20A59FC7
:1041A000900DB49F900DA49F800D911D1124089532
:1041B000EE0FFF1F0590F491E02D0994A29FB0012E
:1041C000B39FC001A39F700D811D1124911DB29F4B
:1041D000700D811D1124911D089581E090E0F894E7
:1041E0000C94D823DC0101C06D9341505040E0F79E
:1041F0000895FB01DC0101900D920020E1F7089584
:10420000AEE0B0E0E6E0F1E20C94AF230D891E8948
:1042100086E08C831A8309838FEF9FE79E838D83CB
:10422000AE01475E5F4F6F89788DCE0101960E9487
:1042300023212F813885F801E20FF31F10822E967B
:10424000E4E00C94CB23ACE0B0E0E9E2F1E20C94C2
:10425000A1237C016B018A01FC01178216828381F4
:1042600081FFBDC1CE0101964C01F7019381F6019A
:1042700093FD859193FF81916F01882309F4ABC170
:10428000853239F493FD859193FF81916F018532D9
:1042900029F4B70190E00E940B23E7CF512C312C79
:1042A00020E02032A0F48B3269F030F4803259F0F3
:1042B000833269F420612CC08D3239F0803339F4B7
:1042C000216026C02260246023C0286021C027FD11
:1042D00027C030ED380F3A3078F426FF06C0FAE0F8
:1042E0005F9E300D1124532E13C08AE0389E300D8E
:1042F0001124332E20620CC08E3221F426FD6BC1B6
:10430000206406C08C3611F4206802C0883641F45F
:10431000F60193FD859193FF81916F018111C1CFCA
:10432000982F9F7D9554933028F40C5F1F4FFFE327
:10433000F9830DC0833631F0833771F0833509F08E
:104340005BC022C0F801808189830E5F1F4F442427
:104350004394512C540115C03801F2E06F0E711CCA
:10436000F801A080B18026FF03C0652D70E002C077
:104370006FEF7FEFC5012C870E9400232C01830182
:104380002C852F77222E17C03801F2E06F0E711C9A
:10439000F801A080B18026FF03C0652D70E002C047
:1043A0006FEF7FEFC5012C870E94F5222C012C8531
:1043B0002068222E830123FC1BC0832D90E0481629
:1043C0005906B0F4B70180E290E00E940B233A94C2
:1043D000F4CFF50127FC859127FE81915F01B7019C
:1043E00090E00E940B2331103A94F1E04F1A5108EB
:1043F0004114510471F7E5C0843611F0893639F55E
:10440000F80127FF07C060817181828193810C5F71
:104410001F4F08C060817181072E000C880B990B1B
:104420000E5F1F4F2F76722E97FF09C090958095D3
:10443000709561957F4F8F4F9F4F2068722E2AE0B5
:1044400030E0A4010E944323A82EA81844C0853759
:1044500029F42F7EB22E2AE030E025C0F22FF97F1A
:10446000BF2E8F36C1F018F4883579F0B4C080378C
:1044700019F0883721F0AFC02F2F2061B22EB4FE83
:104480000DC08B2D8460B82E09C024FF0AC09F2F59
:104490009660B92E06C028E030E005C020E130E08B
:1044A00002C020E132E0F801B7FE07C060817181EF
:1044B000828193810C5F1F4F06C06081718180E013
:1044C00090E00E5F1F4FA4010E944323A82EA8185E
:1044D000FB2DFF777F2E76FE0BC0372D3E7FA51478
:1044E00050F474FE0AC072FC08C0372D3E7E05C031
:1044F000BA2C372D03C0BA2C01C0B52C34FF0DC027
:10450000FE01EA0DF11D8081803311F4397E09C06E
:1045100032FF06C0B394B39404C0832F867809F0A9
:10452000B39433FD13C030FF06C05A2CB31418F4F3
:10453000530C5B18B32CB31468F4B70180E290E01D
:104540003C870E940B23B3943C85F5CFB31410F441
:104550003B1801C0312C34FF12C0B70180E390E05A
:104560003C870E940B233C8532FF17C031FD03C0FE
:1045700088E790E002C088E590E0B7010CC0832F87
:10458000867859F031FF02C08BE201C080E237FD2E
:104590008DE2B70190E00E940B23A51438F4B70117
:1045A00080E390E00E940B235A94F7CFAA94F40181
:1045B000EA0DF11D8081B70190E00E940B23A1104C
:1045C000F5CF332009F451CEB70180E290E00E948C
:1045D0000B233A94F6CFF7018681978102C08FEFC3
:1045E0009FEF2C96E2E10C94BD23FC0105906150F5
:1045F00070400110D8F7809590958E0F9F1F0895F9
:10460000FC016150704001900110D8F780959095A1
:104610008E0F9F1F08950F931F93CF93DF93FB017E
:10462000238121FD03C08FEF9FEF28C022FF16C01A
:1046300046815781248135814217530744F4A08174
:10464000B1819D012F5F3F4F318320838C93268161
:1046500037812F5F3F4F3783268310C0EB01092F2F
:10466000182F0084F185E02D0995892BE1F68E81C4
:104670009F8101969F838E83812F902FDF91CF9111
:104680001F910F910895FA01AA27283051F1203186
:1046900081F1E8946F936E7F6E5F7F4F8F4F9F4FD6
:1046A000AF4FB1E03ED0B4E03CD0670F781F891F18
:1046B0009A1FA11D680F791F8A1F911DA11D6A0FE6
:1046C000711D811D911DA11D20D009F468943F9199
:1046D0002AE0269F11243019305D3193DEF6CF0198
:1046E0000895462F4770405D4193B3E00FD0C9F75E
:1046F000F6CF462F4F70405D4A3318F0495D31FDCB
:104700004052419302D0A9F7EACFB4E0A69597951D
:10471000879577956795BA95C9F7009761057105F3
:1047200008959B01AC010A2E06945795479537953D
:104730002795BA95C9F7620F731F841F951FA01D97
:1047400008952F923F924F925F926F927F928F9235
:104750009F92AF92BF92CF92DF92EF92FF920F9310
:104760001F93CF93DF93CDB7DEB7CA1BDB0B0FB61A
:10477000F894DEBF0FBECDBF09942A8839884888D7
:104780005F846E847D848C849B84AA84B984C8846D
:10479000DF80EE80FD800C811B81AA81B981CE0F64
:1047A000D11D0FB6F894DEBF0FBECDBFED01089549
:0447B000F894FFCFAB
:1047B400E513E513ECFF0100000000000000000019
:1047C4001815A015C019FF1815A115C819FF18153B
:1047D400AE19FF1815AF19FF1815AE15D5168015AB
:1047E400A8163F15D316001540158D16141520165E
:1047F4000015A115C815DA1612158116CF15D9168C
:10480400F115DB1640152E15A415A619FF00011489
:104814000A6464323200093D000304289610080239
:1048240002800040000600110010000F0001919B5F
:10483400FB000000002C129911C4117312F511D35E
:1048440011E711000000006E143E14510C181436C8
:104854001427141914000000008D10280C510C505A
:104864000C8609500A79090D0A0044657669636566
:104874002053544152540074727920746F206F662F
:10488400660A00436F6D6D616E643A2025692C20C1
:10489400416464726573733A2025692C20546F67F0
:1048A400676C653A2025690A00646973706C6179E4
:1048B400206D6F6465203D20300025696442004905
:1048C4006E7075743A202569005374616E64627960
:0248D4000000E2
:00000001FF
